:10000000C00A00202907000033CF010033CF0100D0
:10001000E5E3010033CF010033CF010033CF01000E
:1000200033CF010033CF010033CF010033CF0100C4
:1000300033CF010033CF010021CF010033CF0100C6
:1000400033CF010033CF010033CF010033CF0100A4
:1000500033CF010033CF010033CF010033CF010094
:1000600033CF010033CF010033CF010033CF010084
:100070009D4200009168000033CF010033CF0100A2
:1000800033CF010033CF010033CF010033CF010064
:1000900033CF010033CF010033CF010033CF010054
:1000A00033CF01002D0A00000D0A0000856A000010
:1000B00033CF010071AD010033CF010015B601004F
:1000C0007D97020079970200B9AD01009397020075
:1000D00081970200E5B501008597020055B6010041
:1000E00009950100CD960100C1B6010033CF010092
:1000F00033CF010033CF010033CF010033CF0100F4
:1001000033CF010033CF010033CF010033CF0100E3
:1001100033CF010033CF010033CF010033CF0100D3
:1001200033CF010033CF010033CF010033CF0100C3
:1001300033CF010033CF010033CF010033CF0100B3
:1001400082B0BFF34F8FBFF36F8F30BF074BD3F831
:10015000F030DB0704D500230193019B052B01DD63
:1001600002B07047019B0133F6E700BF00ED00E0ED
:10017000F0B5114A114C124E00F00105E3695F071A
:1001800013D40DB9334213D103EA00078F4207D1CC
:100190000B4A1A40002A0CBF00206FF00100F0BD8E
:1001A000013AEBD16FF00200F9E74FF0FF30F6E7CC
:1001B0006FF00100F3E700BF809698000000035045
:1001C000020001000B4B70B5D96911F480310DD1DB
:1001D00001244FF48072084E084DF46020462C64D0
:1001E0001A61FFF7C5FF3464EC6070BD6FF0010069
:1001F000FBE700BF00000350001003500020035035
:100200004FF4003238B50F4B0F4C9A6641F67133FC
:100210000122E569E3630D4B0021DA60022360618E
:100220002120236105F48035FFF7A2FF10B92120BA
:10023000FFF79EFF0122064BDA600DB10023E36356
:1002400038BD00BF00900050000003500010035064
:100250000020035070B5134C6061E3695B071ED446
:100260000E4656F8043B8D18A361AE420BD1042311
:10027000002121202361FFF77BFF58B9BDE87040C2
:100280002120FFF775BF08210846FFF771FF10B165
:100290000423236170BD56F8043BA361E5E74FF0EA
:1002A000FF30F7E7000003502DE9F84315464FF4FF
:1002B0000032184B89469A6641F6713203F51C33B9
:1002C000DF69DA630122064603F58053DFF84C80CC
:1002D00007F48037DA6055B9284601220E4BDA6000
:1002E0001FB10022A3F50053DA63BDE8F88306F5D9
:1002F000005404EA0804A41BAC4228BF2C4649461B
:1003000022463046FFF7A6FF0028E6D12644A14446
:100310002D1BE0E7009000500020035000E0FFFF9D
:10032000013800D0FCE770470348044B834202D0F9
:10033000034B03B118477047402D0020402D00208B
:1003400000000000064B0749C91A891048BF013157
:10035000491003D0044B0BB101481847704700BF48
:10036000402D0020402D00200000000010B5064C5C
:10037000237843B9FFF7D8FF044B13B10448AFF318
:1003800000800123237010BD2A25002000000000FA
:10039000A8FB020008B5054B1BB105490548AFF3A2
:1003A0000080BDE80840FFF7CDBF00BF000000009F
:1003B000B00D0020A8FB0200A3F5803A704700BFF3
:1003C000174B002B08BF134B9D46FFF7F5FF00218D
:1003D0008B460F461348144A121A1FF094FE0E4B18
:1003E000002B00D098470D4B002B00D098470020E1
:1003F000002104000D000D48002802D00C48AFF386
:10040000008006F0B1FE200029001FF0F1FB06F08D
:1004100099FE00BF0000080000000000000000007E
:10042000C00A0020C00A00200029002000000000AF
:100430000000000037B5044609F08AFF00283ED1CD
:10044000214B2077A361A36843F48013A3601EF0BF
:100450002FF8A368A0801B030CD4B0F5FA7F09D94C
:100460002AF0D9FB01210546084629F057FC284609
:100470002AF0CCFB204609F093FF08BBE06808B3E4
:100480000CF068FC21F071FA09F0B4F822F0F5FAEA
:1004900020F099FF00220121042021F057FA0023C7
:1004A00001A88DF804300AF045F9032104200BF06F
:1004B00059FE0A2008F03EFE20461CF027FD0020D1
:1004C00003B030BD0148DBE705040300182D002010
:1004D00008B50449044815F061F9BDE8084015F075
:1004E0008FB900BF10B00200D8B002004FF08052A8
:1004F000014B5A60704700BF00ED00E0F8B50E46B2
:100500000546D0B1C9B10E4B0E4F1968386801F0DD
:1005100051FA044678B9062332460B49386801F08F
:1005200017FB044638B901232A460849386801F008
:100530000FFB00B12C702046F8BD2124FBE700BF63
:10054000F02A0020102B00202C0004003C000400A6
:100550001822F0B58DB000210DEB02001FF0D3FD85
:10056000052301244FF4806502278DF828304E4B77
:100570004E481A885B88ADF80420ADF808308DF835
:100580001840ADF80070ADF80C502AF066FB4848F2
:100590002AF063FB05A903202AF05AFB4549059878
:1005A0008DF81940814228BF01461DF0D0FB04267A
:1005B000099006A9404803F07BF9404B22465C6055
:1005C00031465C6168465E611CF027FD00222146D1
:1005D0000DEB06001CF021FD2246314602A81CF05E
:1005E0001CFD3146224603A81CF017FD4FF00212F5
:1005F000334B4FF44870C3F83026A2F58032C3F86D
:100600002C261C22C3F83476C3F81C2603F060FEA7
:1006100004A8ADF810501CF026FD142003F058FE7D
:1006200004A8ADF810501CF00CFD232003F050FE80
:1006300004A8ADF810501CF016FD1F4B9A69510626
:10064000FCD5B922DA639A699206FCD55B6A4FF44D
:10065000806304A8ADF810301CF0F3FC002268465B
:1006600011461CF0DAFC002201A811461CF0D5FC52
:100670000122002102A81CF0D0FC0021012203A8C5
:100680001CF0CBFC0C4803F0F7F800220C4B084898
:10069000C3F81C26C3F83026C3F82C26C3F834262A
:1006A0002AF0DEFA0DB0F0BD70B10200F4B1020024
:1006B000E8B1020000127A0000C0055000D00550D9
:1006C00000C0035007B50421064B00221B880DEB28
:1006D0000100ADF804301CF0A0FC002003B05DF870
:1006E00004FB00BF74B1020008B504482AF0B5FA53
:1006F0001FF02CFABDE80840FFF72ABFF4B1020052
:1007000001482AF0AABA00BFF4B102000348044A23
:100710000449121A92101CF00DBC00BF40010000E9
:10072000200300000029002008B5154B83F30A8838
:1007300000F030F8FFF7EAFF124B13498B4212D357
:100740000020124B12498B4218D3FFF739FE18686C
:1007500050F82240586840F822400132986882429E
:10076000F5D30C33EAE70022F8E71C6844F82200CE
:1007700001325C68A242F8D30833E4E70022F8E7CC
:1007800000000020B0FB0200BCFB0200BCFB02002A
:10079000BCFB02004FF40041134B144A70B59A6041
:1007A000D3F88820124D42F47002C3F88820114A11
:1007B00005F5005491664FF0FF3222664FF6DF7266
:1007C00062660222C3F8D020BFF34F8FBFF36F8F52
:1007D0004FF44036032003F037FA0320E66003F0BD
:1007E00017FA2E6170BD00BF00ED00E000000000B0
:1007F0000080004400900050014B1860704700BF1B
:10080000E42A0020054B1860054B1B6F03F007031B
:10081000032B01D129F098B9704700BFEC2A0020C2
:100820000080005007B508201CF0E0FB0222064BB8
:100830006846CDE900231CF09DFB082003B05DF85D
:1008400004EB1CF0DEBB00BF006A1810BFF34F8F33
:100850000549064BCA6802F4E0621343CB60BFF35C
:100860004F8F00BFFDE700BF00ED00E00400FA0578
:10087000002307B5294801932AF0EFF94FF440739C
:10088000012204216846ADF800301CF0C6FB0122AD
:10089000234B0520C3F8442401A92AF0D9F90028E4
:1008A00039D1204BD3F8F02042F00102C3F8F020F8
:1008B000D3F8FC2042F08072C3F8FC201A4AA3F55A
:1008C0005D431A60019B194A03F5D52303F2FC43EB
:1008D000B3FBF2F3164A013B13610223C2F8F03076
:1008E0004FF48073C2F804334FF06043114AC3F8E9
:1008F000B02F114AC3F8802ED3F8002E42F4807234
:10090000C3F8002EFF2283F82020D3F8002E22F413
:100910008072C3F8002E03B05DF804FBF4B102004E
:1009200000D0035000ED00E0FF030040F8590D0037
:10093000000004E055CEACC5090001004FF0604353
:10094000D3F8802E30B5D20715D501240B4D844045
:10095000D5F8FC2042F08072C5F8FC20D3F8002EB8
:100960002243C3F8002E53F82020002AF0D003F8C9
:100970002010002030BD1120FCE700BF00ED00E09A
:10098000F8B504460127124D0CB314F001000BD04A
:10099000002024F0010405EBC0021668002EF3D0FD
:1009A0005168C0B2B047EFE72246013020284FEA35
:1009B000520201D0D307F8D507FA00F20F2824EA33
:1009C0000204E8D9421E05EBC2021038E5E7F8BD83
:1009D000C80D002008B50C482AF03FF9192003F093
:1009E00025F928B1192003F02FF9192003F010F987
:1009F0001A2003F01BF928B11A2003F025F91A2058
:100A000003F006F9002008BDF4B1020008B502F0B9
:100A10008FFE054B00F0553020F05020C3F8200425
:100A2000BDE80840FFF7ACBF00E0035008B502F096
:100A30007FFE054B00F0AA3020F0A020C3F8200470
:100A4000BDE80840FFF79CBF00E003502DE9F04FE0
:100A5000144605460E469B46C36B87B001225B6970
:100A600002A960689847EB6B01225B6903A93046D5
:100A7000984702A81CF06BFF074648B10023A375F6
:100A800063754FF0FF33A360002007B0BDE8F08F1F
:100A900003A81CF069FF0123A375237E04EBC303A5
:100AA000DE611F846368B3420ED1206003A81CF08E
:100AB0007DFF4FF0FF332075A360237D043B022BA5
:100AC00026D80023A375DFE723681A1A534253413F
:100AD000A37503A81CF06AFF237D834218BFA77586
:100AE00003A81CF045FF074602A81CF041FF8742FF
:100AF00018BF002303A818BFA3751CF041FF0746C9
:100B000002A81CF03DFF87421CBF0023A375D4E759
:100B100003A81CF02DFF80B1EB6B022230465B690D
:100B200004A9984704A81CF032FF0346207D03283F
:100B300039D8DFE800F03838040903A8F3E7CC22FD
:100B4000237E04EBC3031A8401F0B8FA109B1870DB
:100B500003A8277E1CF000FF04EBC70787F82200DC
:100B6000237E03A804EBC303B3F8209093F822700C
:100B70001CF0FEFE804603A81CF002FF8246B8F17E
:100B8000000F15D0EB6B022230465B6904A9984731
:100B900004A81CF0C1FE6075637D6BB90023A375CA
:100BA0004FF0000838E0227E04EBC2021384CBE74A
:100BB00003A81CF09CFEEEE794F81680B8F1000F35
:100BC000EED0B9F1000F09D1DFB10123E375637EE7
:100BD000002B4FD1012F42D1677614E06B6C06EBEE
:100BE0000A02594286EA020008421CBF0021A17590
:100BF000591E0A409B1A9945D0D8A37D002BE3D1FA
:100C0000CEE7E37D43B94FF000084B4652463146EC
:100C100028461CF0DAFBA060A27D12B123694B4488
:100C200023611A49237E097899422AD90133237610
:100C3000BBF1000F27D032B3E37D23B3B8F1000F2F
:100C400021D1032F1FD0A1684B1C1CD0109B224622
:100C5000009328460123FFF7F9FEA07513E095F8ED
:100C6000343063B9EB6A0133CFD1032FCDD10123E7
:100C7000A376C8E7012FCFD0032FC4D1F7E798465A
:100C8000C3E70023A375A07DFFE600BF98B1020073
:100C90002DE9F04F0E46984600238BB004464FF0E6
:100CA000FF31104617468DF8133001F0F1F9B6F513
:100CB000801F3BD3B21C53D1E56A6B1C57D1204631
:100CC000616A1CF0C8FA0546B31C18BF0123DFF89F
:100CD00010910193636A626C0293236805A902FB79
:100CE000053AE36B05225B695046984705A81CF05E
:100CF000C9FE1CF0ECFE50461CF0F4FE4FF0000B59
:100D0000824601464B1C05D0636C81EA0A025B42B5
:100D1000134232D0294620461CF09DFA029BAB427A
:100D20004DD0BBF1000F4DD10546D3E7314605AAA2
:100D300004F108001CF059FD0146481C10D038464B
:100D400001F0A6F90122394620460DF113031CF0EB
:100D50008EFB28B19DF8133088F80030002003E0A6
:100D6000237C002BA8D12D200BB0BDE8F08F236889
:100D7000ED1A636CB5FBF3F5A6E7484601F088F978
:100D80000DF1130349462046019A1CF070FB0346FF
:100D900090B1B21C03D0D9F80020B2420CD19DF81A
:100DA000132003930D4B88F8002049461A683846F3
:100DB0001FF011F9039B9B46D9F80810A2E7BBF17D
:100DC000000FD0D0B6F5801FC8D2314698F8003059
:100DD0007A6804F1080001F089F8BFE794B10200D5
:100DE0002C1500202DE9F3410446174698460E467F
:100DF000194D816AE36A8B422AD04B1C18E02846C1
:100E000001F046F90122294620460DF107031CF0A6
:100E10002EFB30B14346294620469DF80720B847AF
:100E2000B0B1A9684A1C05D0012E0AD0E36A9942E4
:100E3000E5D10DE0696820461CF09AFA012E0146C2
:100E4000D8D16B6881EA0302636C5B421A42D1D04D
:100E500002B0BDE8F08100BF001500202DE9F04789
:100E60004FF0FF334FF6FF720025044600F10806ED
:100E7000C0E909238AB0C3620562056330460F46A4
:100E80001CF084FC20461CF066F928BB204639463D
:100E90001CF031FA20461CF05EF928BB5E200AB037
:100EA000BDE8F087E26B2368606CD2F814C000FBE9
:100EB0000530052205A9E04705A81CF0E3FD01283F
:100EC00040F08380294620461CF0E6F9421C294662
:100ED00020461CF05FF90135E3699D42E2D32046CC
:100EE0001CF039F90028D1D020461CF064F94FF6E7
:100EF000FF72636A934200F0B080E26B676C206817
:100F0000694607FB030055690522A84768461CF09F
:100F100090FD626A2368606C514D00FB02301CF04A
:100F2000E1FD4FF0FF33A062E3622A466FF001015A
:100F3000204605ABFFF7ACFE002850D1AD6829462E
:100F40002046E5621CF0E3F8206320B92046E16A00
:100F50001CF00EFAE062294620461CF009FA05460C
:100F6000A36A9D423DD120461CF08FF800278046A1
:100F7000B946E369994546D3B84563D92046616AC5
:100F80001CF069F90026054604F1400ABE4212D35E
:100F9000626C2368694602FB0539E36B05225B69D5
:100FA0004846984768461CF044FD53460246494669
:100FB000E06B1CF099FD294620461CF04CF90136E7
:100FC000B0450546E2D1642069E71CF085FD0028A4
:100FD00081D0294620461CF05FF9024677E7A56AD2
:100FE000ADE7294620461CF092F8236B29460344BE
:100FF0000746236320461CF0BBF90546002FAFD1FE
:10100000C4E90B07ACE7636C2568052203FB0955AF
:10101000E36B05A95B692846984705A81CF032FDDB
:101020001CF055FD58B128461CF05CFD01462046D9
:101030001CF06DF8636C143B984208BF013709F14E
:10104000010996E730461CF0A1FB00232046194613
:10105000044AFFF7C7FE002021E767201FE700BF13
:10106000581500205DD401002DE9F041036B904636
:10107000826B07689A4288BF8363426C436A90B070
:1010800002FB0377C36B0E46052201A95B69044688
:101090003846984701A81CF0F5FC0128014630703D
:1010A00057D0656CE26B2368606AD2F814C005FB08
:1010B0000030052206A9E04706A81CF0E3FC012841
:1010C0004FF0000523D0D4E90A3201219342CDE943
:1010D0000B458DF834800E958DF83C102AD11946B9
:1010E00020461CF045F9236B626C14339B1AE062B6
:1010F00023630C9B53B99DF83C303BB1626A616C31
:101100002368E06B01FB02311CF074FC0C9DE36B67
:1011100005225B6901A93846984701A81CF0B2FC7A
:1011200030702846236BA26B9A4288BFA36310B02D
:10113000BDE8F081237C33B91C490BAA04F10800F7
:1011400000F022FFD5E72046194A0BABFFF74AFE15
:10115000CFE7237C23BB2246164904F1080000F0A8
:1011600013FF616A20461CF097F8616A421C204612
:101170001CF010F8054620B9236B626C1344143B35
:1011800023632046A16A1CF0F3F82368A062C01A0A
:10119000636CB0FBF3F0606220461CF02CF9B6E7FC
:1011A00000232046044AFFF71DFEDAE7011900007C
:1011B0007D180000F7D4010093D4010073B50D46EB
:1011C000D11E4A421C461B7E4A419A4226D12968BA
:1011D0002368994222D3636899421FD8114E0DF1BA
:1011E00007033246FFF754FDC0B972686B689A4234
:1011F00014D19DF80730DA1E53425341227E9342A8
:101200000CD1636901336361D4E90323934205D2AE
:101210002968A26842F8231001332361012002B03B
:1012200070BD00BF581500202DE9F04F9A468BB0D5
:101230009DF85030DFF850B10293DBF81030804653
:1012400053450D461646C0F09980D146DBF8043070
:101250000193B9F1000F00F08D80D8F83C300122E5
:101260005B6907A90198984707A81CF07DFBDBF88C
:101270000030984240F0858007A81CF081FB0428CC
:10128000074614D107A81CF082FB019B029A044672
:101290003B44002A3FD1864212D91446361A4046B2
:1012A00001991CF065F8A9EB04090190D1E7D8F881
:1012B0003C3002225B69019808A9984708A8E2E738
:1012C000841B544528BF5446032C03EB0607AAEBA6
:1012D000040A4FEA94021CD9D8F83C302946384613
:1012E0005B69984724F0030304F003061F441D4480
:1012F000002ED4D0D8F83C3001225B6908A93846CA
:1013000098473246284608A935441EF064FE002658
:10131000C5E72646ECE7074600F0030203920344C4
:101320002A1804920593049BDD1B059BD81B039B85
:101330009F420FD1002FB2D0D8F83C30012208A92B
:101340005B6998473A46284608A91EF0B2FE78B96C
:101350003D44A4E7D8F83C30012208A95B699847CE
:101360000422284608A91EF0A4FE08B9043FDAE7C3
:101370004FF0360948460BB0BDE8F08F4FF06309D7
:10138000F8E74FF06F09F5E7841500202DE9F041EB
:101390000F4616469846044688B060B390F834501D
:1013A000FDB101211BF0CCFE00210E9BCDE9051102
:1013B000CDE902379DF83C30CDF804808DF81C3023
:1013C000237C04968BB90D4901AA04F1080000F0B2
:1013D000DBFDDDE90553E06B002E08BF1D461CF068
:1013E00098F8284608B0BDE8F0812046044A01ABD1
:1013F000FFF7F8FCEDE70546F3E700BFC1D40100B5
:10140000BD1100002DE9F04F99B00F4609920A690D
:10141000416C0E931439D31DB3FBF1F3013302EB8E
:10142000C302036B04469342C0F0BC810023DFF883
:1014300044940D93E36A48461946079300F028FE4A
:10144000D7E9033604930E9B022B4ED1CC2E40F0ED
:101450008A81099B002B42D0394620461CF0B7F800
:10146000656C079A6B1E13401490ED1AE36B012212
:101470005B6916A97868984716A81CF079FA0028C5
:101480000CBF04230823782E06933DD901230025A1
:101490004FF0080A05933B6805990E98C9F800308B
:1014A000C9F810601CF086FA4FEA9A0310930023E3
:1014B000DDF81CB089F814000B930F9308930C937C
:1014C000616C4A1E0BEA02028B1A002E38D055447A
:1014D000AB4240D8236B5B1A13442363ABE0049BFD
:1014E0001B68149308230693D0E7656C079A6B1E5C
:1014F0001340782EA5EB030516D8FB7D7BB9099B1D
:10150000002BB3D104230693331DAB4210D9A6B1EF
:10151000082DBBD804250023AA460593BBE7099BE9
:10152000002BA3D10823EEE7099B002B9ED1D9E71E
:10153000002505954FF0040AADE704250596F9E767
:101540005345C7D3B0460BEB0A030393089B002B0C
:1015500018BF032313E0A3EB0A039E42B0460BEB34
:101560000A0228BF98469E420392EFD90123D9F878
:10157000102089F81730964271D1C9F804B0089349
:1015800099F81730002B6CD099F818200899D31CC3
:1015900009EBC3030132C3F804B0A3F808809972C1
:1015A00089F81820B8F1000F14D00E9B022B5BD1E4
:1015B0000B9B7BB90F9B4344032B0BD9E36B01229D
:1015C0009B69039814A998470546002840F0EC80D1
:1015D00001230B93089B16A80193059B009399F890
:1015E00014204346396800F009FDE36B58469B69B7
:1015F000109A16A99847051E0D9B18BF5B465246C8
:101600000D935946434620461BF0DFFE236B08F13D
:101610000302A3EB0A0322F003029B1AC9F8080095
:101620002363002D40F0C0800F9BDDF80CB04344D5
:10163000A6EB08060F93594620461BF099FE00259D
:101640008346002E7FF43CAF8A4A3968936804F1E0
:101650000800E36252680E9B00F048FC84E002231D
:101660008DE7C9F804B09DE7099B002B30D1049B9E
:10167000B8F1030F43440A9327D9DDE90301E36B73
:101680004FEA98029B6998470546002865D118F0F3
:1016900003025FD0049B28F003052B440493039BB3
:1016A0001D444FF0FF33049915A815931EF093FCC9
:1016B000E36B28469B69012215A9984705460A9BBA
:1016C0000493002D86D0039B99E74246039DE8E7EB
:1016D000039B0A9307F120031193FB7D78689BB16C
:1016E00000233D7E0C9AD9B28D4211D9119903F194
:1016F000010C31F83310914226D9069907EBC30348
:10170000D8690A44104403E00C9B069A1344184419
:10171000E36B01225B6915A99847159B012213937E
:101720000C9B0A9804330C93E36B13A99B699847AD
:10173000039B0A9A43449B1A042B054607D978B9A0
:10174000134604330A93C8E76346521ACBE70A9B51
:101750000393B6E70A9B04933CE70A9B0493B2E722
:101760000A9B0393AFE77026304619B0BDE8F08FAF
:10177000002657E004F108001CF008F83346314613
:1017800020463D4AFFF72EFB3A69616CD31D1439A0
:10179000B3FBF1F3013302EBC302236B9342BFF4BB
:1017A00049AE65E01C26DFE73D2D61D104F1080359
:1017B00003932368079A606CD61AB6FBF0F600FB19
:1017C00006301CF08FF9E16A824620461BF0D0FDFE
:1017D000A26A8242D8D0626CD9F80830511E0B4000
:1017E000216BE062891A0B4423630D992368CB1A9D
:1017F000B3FBF2F84645BBD1079BB3EB0A0611D009
:10180000E36BB20851469B6998478346E36A079A9F
:101810003344E362236B03989B1A534423631BF006
:10182000B5FF5E462368616CE06B01FB08311CF07C
:10183000CEF820461BF08FFC20461BF0BCFC626AF1
:101840002368606C00FB02301CF04CF9A06220465B
:101850001BF0D1FD2063002E8CD03A69616CD31D42
:101860001439B3FBF1F3013302EBC3029042A0D26F
:101870002E4679E72C1500205DD40100032A2DE9BE
:10188000F34106460D4617461C4606D1237A012B26
:1018900023D0012002B0BDE8F081DFF86080096844
:1018A00042460DF10703FFF7F3F960600028EDD120
:1018B0009DF80720237A032AE8D0D8F804106A6834
:1018C0009142E3D1012B2969D4F80CC007D1726988
:1018D0000CEB0103934202D92074207CDAE7083133
:1018E0006144E1603B46012229463046FFF78AFD0C
:1018F00060600028CAD00020CCE700BF5815002047
:101900002DE9F341089C032A1746266806D1237A5D
:10191000012B24D0012002B0BDE8F081DFF89080D7
:10192000304642460DF10703FFF7B2F96060002828
:10193000EDD12568D8F80400A96AD5F844C048401C
:10194000CCF100031840227AE1D1012A09D1E268E2
:10195000D8F8103013447269934202D92074207C65
:10196000D9E72868EB6A1B1A081AB3FBFCF3B0FB33
:10197000FCF083420BD1706CF36A421E1340326B51
:10198000121A1344284633631BF0F2FCE862D8F8BD
:101990001020E36808321344E36001223B46044907
:1019A0002068FFF72FFD60600028B0D00020B2E76C
:1019B000581500202DE9F0410025634B0E46D3F861
:1019C000008004461D6018B921252846BDE8F08135
:1019D00090F8347007B30A6803689A4240F0AA800E
:1019E0004A6843689A4240F0A5808A6883689A42B0
:1019F00040F0A080CA68C3689A4240F09B800A69A0
:101A000043699A4240F096808A69C36B9A4240F0DB
:101A100091804B698361D8E768223946856B1EF057
:101A200072FBD6E90212336804F108002360736880
:101A3000A5636360336963617369A3611BF0B8FEDA
:101A4000B36904F14000E3639B68984720B9676C71
:101A500017B16368B3FBF7F794F84330E761002BE5
:101A6000B2D00023656C2366002D6BD0002F69D0A7
:101A70002368B3FBF5F205FB1233002B5CD16768DA
:101A8000B7FBF5F605FB1676002E55D120461BF068
:101A90002EFBA369043303449F424FD340F63472B4
:101AA0006369CC3B93424BD8B5F5805F4AD30321A1
:101AB00020461BF045FBD4E90001E36B1B68984707
:101AC0000546E36B0220DB6898472DB184F834604B
:101AD000E06B1BF01EFD78E741462046FFF7BEF99C
:101AE0006428054604D141462046FFF7B7F905466C
:101AF000636C143BD5B9226A204602FB03F61BF047
:101B0000F6FAA369043303449E4203D284F83450A6
:101B10005A25DDE70123D4E900010C4A84F834306A
:101B20001368013313601BF0DDFED1E7002384F856
:101B30003430CDE75D2548E7592546E75A2544E787
:101B40005F2542E75B2540E7BC0E0020B80E002071
:101B50002DE9FF410C4616461F46054680B390F816
:101B600034307BB3B1F5801F2ED2DFF860800121C5
:101B70001BF0E6FA2146424628460DF10F03FFF717
:101B800087F8044670B99DF80F30012B11D1D8F8B1
:101B90001030BB4212D10246009031462846FFF772
:101BA00043FB0446E86B1BF0B4FC204604B0BDE8E0
:101BB000F081022B14BF2D246024F3E76324F1E7A6
:101BC0002124F2E71124F0E72924EEE78415002010
:101BD0002DE9F04385B00C4617461E460546DDF854
:101BE000308098B390F8343093B3B1F5801F31D280
:101BF000DFF8649001211BF0A3FA21464A462846EB
:101C00000DF10F03FFF744F8044688B99DF80F3033
:101C1000012B14D1D9F8102006EB08039A4213D3F4
:101C200000904346324639462846FFF7FDFA0446FF
:101C3000E86B1BF06EFC204605B0BDE8F083022B7C
:101C400014BF2D246024F3E76324F1E72124F2E795
:101C50001124F0E72924EEE7841500202DE9F34153
:101C60001F4600230C46164605463B6050B390F8CD
:101C700034304BB3B1F5801F28D2DFF854800121F6
:101C80001BF05EFA2146424628460DF10703FEF797
:101C9000FFFF0446A0B99DF80730032B10D0022B9C
:101CA0000AD10123336004233B60E86B1BF031FC55
:101CB000204602B0BDE8F081D8F810303060F3E77C
:101CC0002D24F2E72124F3E71124F1E72924EFE79B
:101CD0008415002073B5044641691BF0EDF9626E6E
:101CE000236B024493422CBF00220122834294BF03
:101CF00000231B1A207C84F85020636584F8580068
:101D0000A8B100230B4E1A461946204600961BF038
:101D10002BFD002305461A461946204600961BF067
:101D20002CFDE3682844984294BF0020C01AE06567
:101D300002B070BDFFFF0F002DE9F3471E46436957
:101D40000446B342884617469DF828904FD3002595
:101D50008DF80750204661691BF0AEF9D4F830A029
:101D600082450AD2236AB5EB430F06D200222046F1
:101D70000DF10701FFF778F9B8B39DF80730012B93
:101D800005D1002220460DF10701FFF76DF9B9F1E9
:101D9000030F06D0314620461BF08EF9256B854295
:101DA00027D3154D4FF0FF31284600F071F94B460F
:101DB000294600222046C5E90376C5F80080FFF7D2
:101DC00021FB236E054663B12046FFF783FF94F89D
:101DD000503013B994F858301BB1236E04F1500001
:101DE0009847284602B0BDE8F0870135B2E7622582
:101DF000F7E71C25F5E700BF581500202DE9FF4146
:101E00000F4690461E46054698B390F8343093B37B
:101E1000B1F5801F31D21A4C02211BF091F92246F4
:101E2000394628460DF10F03FEF732FF024678B11E
:101E3000012342460093394633462846FFF77CFF8C
:101E40000446E86B1BF065FB204604B0BDE8F0815A
:101E50009DF80F30012BEBD12169B142E8D10093FD
:101E6000414633462846FFF7DFF904460028DFD114
:101E7000E7E72124E8E71124E6E72924E4E700BFA7
:101E80008415002030B50C46054685B028B390F87F
:101E9000343023B3B1F5801F23D202211BF050F957
:101EA0000DF10F03214628460F4AFEF7F1FE0346C7
:101EB00088B99DF80F20032A0DD0032221460092F5
:101EC00002462846FFF738FF0446E86B1BF021FB6B
:101ED000204605B030BD2D24F7E72124F8E7112472
:101EE000F6E72924F4E700BF841500202DE9F0432C
:101EF000466886B3056898464FF0000CA946AE4682
:101F000055F83C400CF1010CC4F31307013401D027
:101F1000B94217D066450EF1080EF1D12F460024C4
:101F200003E0A64207F1080712D055F83430013417
:101F30000133F6D1C1F3130141EA0851C7E9001298
:101F4000BDE8F08341EA0851CEE90012BDE8F08314
:101F5000B8F1030F03D101230372BDE8F08300231E
:101F600003E09E4209F10809F5D055F833400133EA
:101F7000C4F30754032CF4D1C1F3130343EA085309
:101F8000C9E90032BDE8F0832DE9F041064640681A
:101F900082B0C0B10F4690460024336853F83450E5
:101FA00003EBC403C5F30752C5F31301013504F174
:101FB000010406D05B683046CDF80080B84710B108
:101FC00070688442E9D302B0BDE8F081024B196821
:101FD000024B1868FFF7EEBCF02A0020102B0020FF
:101FE00008B528F018FE014B186008BDB015002098
:101FF000014B186828F00ABEB015002073B50446DE
:102000002248012A00EAC1119DF8185023F07C40B3
:1020100007D9961E012E28D9073303F07F031943F1
:1020200008E09DF81C300A43DB0603F0C05313435D
:1020300043F060410023C4E900108DF80730B5B1CA
:10204000202221460DF107001BF068FD1A220DF138
:102050000700211D1BF062FD082063689DF8072022
:1020600043EA8263636002B070BD1143E2E71B2262
:102070000DF1070021461BF051FD23689DF8072054
:10208000042043EAC2632360EDE700BF80FFFF073F
:1020900038B5094B0D461A68002104461EF033F886
:1020A00000234FF0FF322383C4E900252361A2609F
:1020B000E382A37638BD00BF94B102000138C0B2FC
:1020C00005289ABF014B185C0120704799B10200A6
:1020D0002DE9F0410746154600240E46596888B0A0
:1020E000490A012922464FEA510104F10104F8D8B6
:1020F000DC78997824031B88C90201F4006104F498
:1021000080540C43C3F30A035203234492B24FF0AA
:1021100000089C18274B6FEA0444039325F078438A
:10212000ED4302A90DF107001B2202938DF80780F1
:102130001BF0F4FC9DF80720029B02A943EAC2634E
:102140000DF107001B2225F07845049302958DF8C8
:1021500007801BF0E3FC9DF80720029B6FEA144404
:1021600043EAC26305934FF0FF330794069307A930
:10217000BB69012206F110009847BB6905A9044616
:10218000012206F108009847BB69404518BF044684
:1021900004A90122301D98470122404518BF04467A
:1021A000BB69304603A99847404508BF204608B0A0
:1021B000BDE8F08101009AB2044BD3F88420D20626
:1021C000FBD4D3F88400C0F3811070470040005066
:1021D00038B5184B0546D3F824010C4600F007002B
:1021E000062823D8DFE800F0040A121A1E0E160093
:1021F000012305B1286004B1236038BD27F07EFCBF
:102200000523F6E727F07AFC0623F2E727F0B6FC71
:102210000323EEE727F0B2FC0423EAE727F0AAFC49
:102220000223E6E727F0B0FC0723E2E70023184685
:10223000DFE700BF0080005038B5104B0546D3F8EB
:1022400000310C4603F00303022B0BD0032B0DD0FF
:10225000012B0FD127F092FC032305B1286004B1B4
:10226000236038BD27F094FC0823F6E727F08CFCA8
:102270000723F2E701230020EFE700BF00800050B2
:1022800038B5104B0546D3F820310C4603F0030354
:10229000022B0BD0032B0DD0012B0FD127F02EFCDE
:1022A000052305B1286004B1236038BD27F066FC22
:1022B0000323F6E727F05EFC0223F2E70123002068
:1022C000EFE700BF0080005038B5104B0546D3F84B
:1022D00040310C4603F00303022B0BD0032B0DD02F
:1022E000012B0FD128F08CFC092305B1286004B123
:1022F000236038BD27F04CFC0823F6E728F083FC68
:102300000B23F2E701230020EFE700BF008000501D
:1023100038B5104B0546D3F860310C4603F0030383
:10232000022B0BD0032B0DD0012B0FD128F068FC12
:10233000092305B1286004B1236038BD27F028FCCB
:102340000823F6E728F05FFC0B23F2E701230020C7
:10235000EFE700BF008000503C4B984272D02AD873
:102360003B4B98426BD014D83A4B984264D00AD871
:10237000394B984243D0394B984240D0384B984221
:102380003DD000207047374B9842FAD1364B586EFB
:102390007047364B984235D003F5371303F5D863B1
:1023A000984232D0A3F5B703A3F558639842E8D119
:1023B0002D4B186F70472E4B984231D00FD82D4BB4
:1023C000984225D02C4B984226D0A3F53703A3F58D
:1023D000D8539842D5D1244BD3F880007047274B6F
:1023E000984221D003F5740303F5105398421FD08F
:1023F000234B9842C5D11C4BD3F8900070471A4B21
:10240000986D7047184B586F7047174B986F70470F
:10241000154BD3F884007047134BD3F888007047EE
:10242000114BD3F88C0070470F4BD3F894007047D2
:102430000D4BD3F8980070470B4BD86D70470A4B83
:10244000986E7047084BD86F704700BF002D310160
:1024500080969800404B4C0080841E0000093D008F
:1024600040420F00C0CF6A000080E00F0024F4005B
:10247000006CDC020048E80180D543020090D003E4
:10248000007E560373B50D4600210E4B0191D3F823
:102490008041064604F00304012C09D0022C0CD024
:1024A0000C460EB1019B336005B12C6002B070BDCB
:1024B00001A8FFF7E5FE0F24F3E727F05BFB01908F
:1024C000EFE700BF0080005038B5104B0546D3F849
:1024D00040320C4603F00303022B0BD0032B0DD02C
:1024E000012B0FD128F08CFB092305B1286004B122
:1024F000236038BD27F04CFB0823F6E728F083FB68
:102500000B23F2E700231846EFE700BF00800050DE
:1025100038B5144B0546D3F800020C4600F007000E
:1025200004281BD8DFE800F003090D111500012372
:1025300005B1286004B1236038BD28F061FB092390
:10254000F6E727F025FB0823F2E728F05CFB0B23D6
:10255000EEE727F0F9FA0E23800AE9E70023184690
:10256000E6E700BF0080005010B40D4C0B46D4F8D5
:10257000204204F00304012C0AD0022C0CD008B134
:10258000002101600BB100221A605DF8044B704716
:102590005DF8044BFFF774BE5DF8044BFFF794BE83
:1025A00000800050B0F5207F1FD009D8B0F5007F23
:1025B00015D003D868B1B0F5C07F0AD000200CE078
:1025C000B0F5607FFAD10B4BD3F88000C0F3011057
:1025D00003E0084B186FC0F3033001307047054B20
:1025E000D3F89000C0F30460F7E7024B186FC0F314
:1025F0008020F2E7008000504FF400320E4B01467D
:1026000010B500209A66FFF7CDFF484341F67132BE
:102610000A490B4B884294BF00200120DC69DA6331
:102620009A6822F4401242EA00529A60E20344BFE0
:102630000022DA6310BD00BF00900050005A620211
:1026400000000350420910B50FD0012A0FD00A4BE9
:102650000A4C022A18BF234600F01F0049B103F5B7
:102660008053012282401A6010BD1346F4E7044BE8
:10267000F2E703F50053F4E76880005060820050F1
:10268000648000501FB50021B0F5807F04460191A1
:1026900000F0068100F29D80612800F295801F28DD
:1026A00005D8002840F0928027F04EFADCE0A0F137
:1026B0002004412C00F28A8001A353F824F000BFCB
:1026C000A92600006D280000A92600006D28000042
:1026D0008D2800008D2800008D2800008D28000026
:1026E0006D2800006D280000472800000128000028
:1026F000C3280000CD280000012800006D2800003C
:102700006D2800006D280000CD270000CD270000B7
:10271000CD270000CD270000CD270000CD270000E9
:1027200097280000232800006D2800006D28000075
:102730006D280000E1280000D72800006D28000067
:10274000CD270000CD270000CD270000CD270000B9
:10275000CD270000CD270000CD270000CD270000A9
:10276000CD270000CD270000CD270000CD27000099
:10277000CD270000A9260000CD270000A9260000D3
:10278000A9260000A92600008D280000CD27000002
:10279000CD270000CD270000CD270000CD27000069
:1027A000CD270000CD270000CD270000CD27000059
:1027B000CD270000CD270000CD270000CD27000049
:1027C000A9260000A926000080284BD0019804B05B
:1027D00010BDB0F5A06F5ED028D8B0F5607F50D0A6
:1027E00019D8B0F5007F4CD004D8B0F5C07F3FF4C5
:1027F0005BAFEBE7B0F5207F38D0B0F5407FE5D197
:1028000027F0A2F902464FF42070FFF7CBFEB2FB8F
:10281000F0F2520833E0B0F5806F37D0B0F5906F2A
:10282000D4D1002101A8FFF7D3FCCFE7B0F5E06FCA
:1028300051D00DD8B0F5C06F43D0B0F5D06F45D0B2
:10284000B0F5B06FC2D1002101A8FFF71BFEBDE7B4
:10285000B0F5F06F44D0B0F5086FB7D101A8FFF71D
:10286000EBFCB3E727F050F90190AFE727F06CF9E4
:1028700002464FF42070FFF795FEB2FBF0F2019292
:10288000A4E727F041F902462046F4E7002101A819
:10289000FFF7F6FC9AE7002101A8FFF765FE95E730
:1028A0004FF0E02302911B695B0705D527F04CF937
:1028B0000290029B019389E703A902A8FFF704FD98
:1028C000F7E7002101A8FFF7FFFC7FE7002101A83F
:1028D000FFF71EFE7AE7002101A8FFF7F5FD75E777
:1028E000002101A8FFF714FD70E700BF08B58020A4
:1028F000FFF7C8FE034B98429EBF4FF48032024B55
:102900001A6708BD005A620200A000501FB50346B6
:102910000020B3F5807F01906FD027D8382B00F0CE
:1029200082800BD8243B092B0FD8092B0DD8DFE868
:1029300003F05F5F5F5F0C0C5A0C3675522B57D05B
:1029400007D83D2B3AD03E2B72D0019805B05DF8E8
:1029500004FB802BF9D1394B1B6F03F00703013BBC
:10296000032BF2D8DFE803F03D36393BB3F5D06FE7
:1029700054D019D8B3F5A06F55D00AD8B3F5806FED
:1029800036D0B3F5906FE0D1002001A9FFF720FC0D
:10299000DBE7B3F5B06F26D0B3F5C06FD5D100201B
:1029A00001A9FFF791FCD0E7B3F5006FECD00AD88E
:1029B000B3F5E06F3CD0B3F5F06FC6D1002001A9AC
:1029C000FFF7A6FCC1E7B3F5086FBED101A9FFF779
:1029D00033FCBAE705230193B7E70323FBE707239B
:1029E000F9E70223F7E7002001A9FFF74BFDACE769
:1029F000002001A9FFF744FCA7E74FF0E023029075
:102A00001B695B0705D527F09FF80C230393039BF5
:102A1000E1E703A902A8FFF757FCF8E7002001A9A6
:102A2000FFF776FD91E7002001A9FFF79DFD8CE7F8
:102A3000002001A9FFF748FD87E700BF0080005094
:102A40004FF48032074B0849586E03F580535A669D
:102A50000B6A23F001030B62C3035CBF034B5A668E
:102A6000704700BF0080005000C0075000A0005019
:102A700008B5FFF74BFF082811D00938012802D903
:102A80004FF6FF7008BD4FF40012064B5A6603F56F
:102A9000D8335B6ADB07F3D54FF4FA70F2E7024BE9
:102AA0001888EFE700900050822C002008B5FFF74F
:102AB0002DFF03280ABF024B4FF6FF70188808BD90
:102AC000802C0020F8B504468020FFF71FFF032864
:102AD00000F087804FF40022424B02215A6645F6EF
:102AE0000E03414AC2F88030404B9962012103F540
:102AF00080539962936DD903FCD4D4E900131B056C
:102B000043EA0163E17B94F820500B43217BE77E8D
:102B100043EA0143617B6D0143EA0133A17B43EA50
:102B2000811313619169D4E904031B0643EA8063AE
:102B300001F000410B43A17E94F823000B43217E5A
:102B400043EA0143617E43EA01239361136AE66924
:102B500023F00D0394F8221043EA8703002E2DD1B1
:102B60001362966A94F8213045EA031326F0330580
:102B70002B4343F0010393621D4D1B4B9A6D35EAC5
:102B80000202FBD10222194DAA621A659A6D520007
:102B9000FCD41A69A56822F4700242EA05521A614F
:102BA0004FF00042114B9A6119B9022203F580538C
:102BB0009A6278B901220F4B9A620BE0334343F0DB
:102BC00008031362936A23F0330303432B4343EA5E
:102BD0004103936294F824301BB1034B064AC3F8B7
:102BE0008020F8BD0090005000C0005000D0005080
:102BF0000300014000E00050F1A7FFFF014B93F9F3
:102C0000000070472C250020F0B5D0E901434FF4B7
:102C100080061A4A4178057856664FF4D156022745
:102C200002F5B8325662164E4F2977604FF0010711
:102C300028BF4F2106F5805677601669F603FCD44D
:102C400041EA052151611B01417B43EA04230B4307
:102C5000017B43EA41039360C37B817B1B0143EA11
:102C60004113417C0B43017C43EA41035360837C65
:102C700013B16FF4D1535362F0BD00BF0090005008
:102C800000100250014B1880704700BF822C0020BA
:102C9000014B1880704700BF802C00204FF40012B9
:102CA00008B5184B5A660223174A5360936813F409
:102CB0008033FBD1012822D126F060FF134B9842CC
:102CC00015D003F5122303F5F863984213D0104B87
:102CD00000EB8002400AB3FBF0F3520A0A49CA62D1
:102CE0000B6301234B620022074B5A6008BD45F677
:102CF0007A13084AF2E745F61A03074AEEE75362E9
:102D0000F1E700BF009000500040025000F049027F
:102D100064666666D8B80500BBCF0500B0F5207FB5
:102D200010B50C4642D008D8B0F5007F33D003D898
:102D300088B1B0F5C07F0ED010BDB0F5607FFBD17B
:102D40001F4A4C1ED2F8803023F0300343EA0413AC
:102D5000C2F88030F0E71AF0FFFE1AF00BFF4FF4D4
:102D60008031184B164A1967136F013C23F47043E6
:102D700043EA0433136726F0E7FE0446FFF71CFA24
:102D8000C0F1020120461AF0EFFE00F035F8BDE870
:102D90001040FFF7ABBD0A4A4C1ED2F8903023F02A
:102DA000F85343EA0463C2F89030C5E7044A4C1E66
:102DB000136F23F4806343EA84231367BCE700BFE7
:102DC000008000500090005008B50121022000F062
:102DD00055F94FF42070FFF7E5FB054B18701AF01A
:102DE000BBFE1AF0C7FE4FF48032024B1A6708BDD3
:102DF0002B2500200090005008B54FF4C070FFF75D
:102E000041FCBDE808400449884294BF01210221E9
:102E10004FF42070FFF782BF80F0FA0238B5044605
:102E200026F092FE0546FFF7C7F9C0F102012846D9
:102E30001AF09AFE0121002000F060F92CB1FFF792
:102E4000DBFFBDE83840FFF751BD034B4FF4207066
:102E50001978FFF763FFF4E72B2500204FF4C02219
:102E600070B50546FFF778FA314B04465A6603F50C
:102E700098335A68012A04D12E494A609A69920708
:102E8000FCD18020FFF742FD052807D11AF064FE2F
:102E90001AF070FE4FF48032254B1A67264B24F04F
:102EA00040749D4230D0254B9D4230D026F026FE06
:102EB0008542064603D90121284600F01FF9204B20
:102EC000DA6812F0060FFBD199689C609A6862403C
:102ED00012F4F81F1ED12846FDF78EFC8020FFF764
:102EE00015FD05280DD126F02FFE0446FFF764F9E5
:102EF000C0F1020120461AF037FEFFF77DFFFFF711
:102F0000F5FCAE420CD270BD44F00074CEE744F044
:102F10008074CBE780209960FFF7F8FC052805D086
:102F2000BDE870400121002000F0E8B83546DAE73E
:102F30000090005000E0015040420F0080841E00CD
:102F40000000015010B5224B70B94FF40031214AF6
:102F50001860516602F598325268012A03D11E4A60
:102F6000D2F800211A6010BD1B68002BFBD01B4A51
:102F70005268012AF7D0184A8020C2F80031FFF7C2
:102F8000C5FC05281FD14FF4C070FFF70BFB0128CB
:102F9000044604D102214FF4C070FFF7BFFE0722A0
:102FA0000F4B1A610122A3F580535A600B4A136933
:102FB000DB07FCD5012CD6D12146BDE810404FF4EB
:102FC000C070FFF7ABBE0122064B5A60CBE700BFD3
:102FD000B4150020009000500080005000C0015047
:102FE00000E0015000D00150044A4178536F23F4AF
:102FF000407343EA01235367704700BF004000500D
:1030000010B5044610B10020FFF79CFF124A136967
:1030100043F00403136127F03BF91AF0B0FD0F4BA6
:103020005B6E5B0142BF0E4B0E4AC3F8202427F0B3
:10303000F2FD27F0E9FF27F0E9FD1AF0A1FD01F00C
:1030400079F81CB9BDE8104026F07EBD0120BDE82E
:103050001040FFF777BF00BF00ED00E00080005098
:1030600000E003500000FF0F034A0179D36E23F004
:1030700030030B43D366704700400050F8B5044658
:103080001C4BD3F88420D106FBD4D3F88430C3F38F
:1030900081139C422CD026F037FD012C064602D12C
:1030A00021461AF061FD27F0B6FD4FF00072124B79
:1030B00007465A6620461AF06AFD4FF480630D4DAC
:1030C000621E93402B676B6E9A0103D4D5F884304F
:1030D0009B060AD5384627F099FD022C08D13046C8
:1030E000BDE8F84000211AF03FBDD5F88430EAE78A
:1030F000F8BD00BF004000500060005010B50C4605
:1031000008B926F001FD074B21461B783BB1064B61
:10311000984204D80120BDE81040FFF7AFBF02205D
:10312000F9E700BF2D250020005A62020278034B08
:10313000012100201A70FFF7E1BF00BF2D250020FC
:103140004FF0004238B5264B26495A6601224A60A4
:103150004AF6CD3103F50B235D6C1964154030BB85
:103160009968C9070BD4002401221F4B5A6015B17E
:103170001E4B1F4A1A6425F084FE204638BD1A49AA
:103180008A601C4AD96ACC0705D4904201D1072431
:10319000EAE70130F6E79042E5D1F8E70132DC6A70
:1031A00014F0080406D08A42F8D10724DFE7002291
:1031B0001049F4E78A42F8D020220B4B0B495A629F
:1031C0000122A3F580539A6023460A4A486A800682
:1031D00003D49342E9D00133F8E79342C7D1E4E73F
:1031E0000090005000500950006009500040095004
:1031F0003254FFFF40420F004FF0004238B5174BEA
:10320000174C5A66012203F50C235A604AF6CD3357
:10321000656C2364437893401343124AD363C378A5
:103220008178A2689B0043EA011322F074021343E1
:10323000A3600279837943EA022323614279C37947
:1032400043EA022363610078FFF77AFFEB0744BF8C
:10325000054B236425F015FE012038BD0090005079
:1032600000400950004000503254FFFFF8B50446BA
:103270000D461F4616464AB101238B403021184A9D
:1032800001FB0022F7B141F21001535004EB44035B
:10329000072D4FF00F014FEA031316D8A80006FAC6
:1032A00000F281400F4818441AF072FC4EB9012315
:1032B00030210B4AAB4001FB042277B141F21001EF
:1032C0005350F8BD42F21001DFE7A5F1080080007D
:1032D00006FA00F281400448E5E742F21001EFE708
:1032E00000C0035004C003500CC00350F8B505469D
:1032F0000E4614465AB303F00307836823F4407361
:10330000836027F088FCAA6882EA072303F44073ED
:103310005340AB6027F07AFC36B9104B9D4217D171
:103320002E20FFF7AFF90646AB680D4BDA5D62431E
:103330000DD0A2EBC403013B3344B3FBF2F3AA6804
:10334000013B920702D5002B08BF0123AB61F8BDFA
:10335000044B9D42E8D12F20E3E700BF0000015A53
:103360009FB102000080065038B500230E4A036466
:1033700000F50053DA634A7804460D4600F108036D
:103380007AB903F5805302221A602046D5E901126A
:103390002B7BFFF7ABFF20462978BDE838401AF0B9
:1033A00006BC03F50053EEE7FFFF1F0070B50546AE
:1033B00016461C4621B94FF42070FFF763F9014609
:1033C000402C1BD003D8DCB1202C1BD070BD602C4E
:1033D000FCD1042303FB06F2530803EB4113B3FBB8
:1033E000F2F36021084A203B02EAC30305F50052CC
:1033F000916005F580529460EB61E7E70623E9E709
:103400001023E7E70823E5E7F8FF7F00012200F536
:1034100080535A6040F6AA6341F2050243610023DB
:103420000B498360C365C26000F500520361C3614C
:10343000C364916407498365884203D1036500230F
:10344000436502E004498842F8D001235360704785
:10345000FFFF010000C005500000065070B50D468A
:10346000FFF7D4FF012300F580567360AB7C044660
:103470001BB1836843F080438360EB7C4BB1344ADB
:103480002B7D944243D1A2F51032C2F88C318023B7
:10349000F3652A8A6B7B20461343EA891343E36072
:1034A0002B7BD5E90112FFF781FF6B7D1BB1A36870
:1034B00043F48033A360AB7D1BB1A36843F40043A6
:1034C000A360EB7D2A7E1B07120502F4E00203F0E5
:1034D000E0431343A365697E1D4A8B1E012B1D4BE0
:1034E0001FD894421BD002F5804294420CBF0122A7
:1034F0004FF0FF3203EB4213022041F21C6203291A
:10350000985020D10423F3652B78636170BD124A73
:10351000944204BFA2F52032C2F89C31B7E70022E2
:10352000E8E794420DD00C4A94420CBF01224FF0C0
:10353000FF3203EB4213022042F21C620129985031
:10354000DFE70022F5E7042204F50053DA65DBE744
:1035500000C0055000C00350000006504FF4003278
:10356000054B9A6641F6713203F51C33DA6301228A
:1035700003F50053DA607047009000500B4B0121B7
:103580009B6E9B035EBF4FF40032094B9A6641F677
:103590007132084BDA63084AD1600022DA634FF4D3
:1035A0000032A3F518339A66704700BF00800050C0
:1035B000009000500000035000200350CB784A7860
:1035C00010B55B010C7843EA82030A79234343EA8E
:1035D00002130C22424302F1B0421363012C02BFDA
:1035E0008A78024B43F8202010BD00BFE8800350CA
:1035F00008B54FF0B0435A686AB958B15B680BB16F
:103600001AF0F3FA01210D4B59601AF0EEFA4FF05F
:10361000B043D96008BD5B680BB11AF0E6FA002828
:10362000F0D11AF0E2FA4FF0B0430222DA601AF059
:10363000DCFA0122024B5A60ECE700BF0010005890
:10364000002000584FF0B0414B6810B50BB11AF094
:10365000CCFA01220B4BC4785A608378934043EA3A
:10366000840344782343047943EA0413447943EA06
:10367000C4038B60044B5A600378C3F10203CB6030
:1036800010BD00BF00200058001000584FF48032D9
:10369000064B5A6603F5E6235B69C3F38512827015
:1036A00003F03F021B0B4270037070470090005004
:1036B000014B986CD96C70470080E00F0120034BE0
:1036C0009B680A3303F01F03984070470080E00FA7
:1036D00030B5154CA04219D004F58044A04217D053
:1036E00004F58044A04215D004F58044A04213D0D4
:1036F00004F58044A04208D1042006250B4C6BB190
:1037000005FB001004EB8004E26030BD0020F4E70C
:103710000120F2E70220F0E70320EEE705FB0011AD
:10372000120204EB8104EFE7008004500081035093
:10373000034BD3F82424D3F820041040704700BF73
:1037400000C003502DE9F8431E4B0546D3F8103353
:103750004B1E0E2B0E46174690F8009044781DD94C
:1037600009B34FF000082846D7B127F063FA09EBF8
:103770004903072C4FF00F014FEA031315D8A4009B
:10378000114808FA04F2A14018441AF0B7FABEB979
:1037900028468FB1BDE8F84327F04CBA8846E2E7E7
:1037A0001AF0BBFAE3E78846E1E7083CA4000748C3
:1037B00008FA04F2A140E7E7BDE8F8431AF0ADBA11
:1037C000BDE8F88300C0035004C003500CC0035090
:1037D0000A4B1B68C3F30743012B0ED1084B04208F
:1037E0005A6E4FF480230749520358BF064A4B666E
:1037F00001F51041086258BF536670470080E00F22
:10380000008000500090005000A000504FF4803223
:10381000084B5A6603F5E6235B691A0B027003F046
:103820003F0242704FF6FF72C3F3851342808380DC
:10383000704700BF00900050014B986CD96C7047E6
:103840000080E00F10B50446094B08469C4209D1A0
:103850004FF4C67200211AF06EFA802304F58054EA
:10386000E36510BD034B9C42F7D14FF4CE72F1E7F4
:1038700000C0055000000650012100F5805310B52E
:10388000596040F6AA6341F2050243610023074CE8
:103890008360C365C26000F500520361C361C36405
:1038A0009464836503654365516010BDFFFF0100AB
:1038B00038B50C46FFF7E0FF012200F580535A604F
:1038C0008368A278054643EAC2336269134362788B
:1038D00043EA8223E27843EA4273227943EA0243CD
:1038E00043F001038360637913B1A179FFF7AAFF65
:1038F000237CE26843F48053EB6023781B016B6107
:10390000074B03EAC203EB61E379227A1B07120536
:1039100003F0E04302F4E0021343AB6538BD00BF9F
:10392000F8FF7F0070B504460D4627F07DF91D2C89
:10393000064608D80C2C0AD8082C2CD013D8BB2348
:10394000E340DB0718D4002321242B801EE0012351
:10395000174AA340134224D1122C26D00D2CF2D1A9
:103960004FF4F06005E0092C18D00C2CEBD14FF48B
:10397000C060FFF77DF802E08020FFF797F84FF670
:10398000FF7398420CBF0E2400242880304627F095
:1039900046F9204670BD4FF48060EEE74FF490602A
:1039A000EBE700230F242B80F0E74FF4E060E0E723
:1039B0000080912030B58BB06C466B4D0FCD0FC49D
:1039C0002B686A4A23604FF60173ADF80030D2F8D5
:1039D0004C3113F4802340F0BA80D2F850218DF896
:1039E00001309DF801306C46FF2B08BF2523684647
:1039F0005F4D8DF80130FFF707F93220FFF742F9EC
:103A00000FCD0FC40FCD0FC495E8030084E8030069
:103A1000564BD3F84C21120300F18380D3F8504168
:103A2000E4B28DF81940FFF7E9F8044484F3080480
:103A300050488DF81840FCF7E5FE6846FFF742F85D
:103A40003220FFF725F94C48FFF708FA4B4C4C4859
:103A500027F003F90020FFF721F9FFF7B5F9236FED
:103A6000002023F0070343F003032367FFF7D6F991
:103A7000236F444923F474432367434BD3F8FC205A
:103A800012F0807253D1C1F880203C4BD3F8202132
:103A900022F0030242F00202C3F82021D3F82421CD
:103AA00022F0070242F00202C3F82421D3F8802159
:103AB00022F0030242F00102C3F88021D3F8402132
:103AC00022F0030242F00202C3F84021D3F8602141
:103AD00022F0030242F00202C3F86021D3F8402230
:103AE00022F0030242F00202C3F84022D3F800227F
:103AF00022F0070242F00202C3F80022D3F820228B
:103B000022F0030242F00102C3F82022FEF798FFE0
:103B10004FF0E0220020136943F0040313610BB05F
:103B200030BD1A4B1C88FF2C88BF782479E7D3F866
:103B3000FC2022F08072C3F8FC200022C1F8802013
:103B4000D3F8FC2042F08072C3F8FC209DE74FF0D0
:103B50007E6393F89C2093F99C30002BFFF641AFD5
:103B60008DF801203DE700BFA4B102000080E00F06
:103B7000B8B1020000F0490200B4C4040080005053
:103B8000F0B102000090005000ED00E00001E00FF5
:103B900007B56B46054A1068516803C36846FFF7CE
:103BA0002BFB002003B05DF804FB00BFE0B1020076
:103BB0000028ACBF00F16040064B4FEA0111C9B2CA
:103BC000ABBF00F5614000F00F0080F800131954FE
:103BD000704700BF14ED00E008B527F025F80B4B47
:103BE0001A7872B901221A7027F019F86FF00402DE
:103BF00010460132052152B2FFF7DAFF402AF7D111
:103C000008BDBDE8084027F00AB800BF2E250020F7
:103C1000002807DB01234109034A00F01F0083400D
:103C200042F82130704700BF00E100E0054B42112F
:103C300053F8223000F01F0023FA00F0C04300F0D8
:103C40000100704700E100E0002808DB0122430981
:103C5000034900F01F008240603341F82320704781
:103C600000E100E013B5094C684600F037F823780E
:103C700053B9DDE900010222054B1AF095FB08B9A2
:103C80000123237002B010BD1220FBE72F25002076
:103C9000B815002007B5009313460A4601460348AD
:103CA0001AF0BCF803B05DF804FB00BFB8150020A3
:103CB00013460A46014601481AF0A0B9B81500207B
:103CC00007B5009313460A46014603481AF099FACD
:103CD00003B05DF804FB00BFB81500200249034A99
:103CE0000160521A42607047402D00200080002081
:103CF000BFF35F8F074B5A6A22F480325A62D3F8BF
:103D0000942022F00102C3F89420BFF34F8FBFF339
:103D10006F8F704700ED00E038B5FFF7E9FF274AE5
:103D20002748D2F8C030274D23F0FF0343F0A0030B
:103D3000C2F8C030244B04689D4204F101011DD13A
:103D4000224BC2F89840C2F89C3003F5FF437E3303
:103D5000C2F8A0300160BFF35F8F0522174BC3F894
:103D600094205A6A42F480325A62BFF34F8FBFF3F5
:103D70006F8FBFF34F8FBFF36F8F38BD23F01F03DB
:103D8000203BB3F1005F09D3C2F898400F4C43F0D9
:103D90000103C2F89C40C2F8A03001600C4B0168DE
:103DA000064A23F01F0343F00303C2F89810C2F839
:103DB0009C30084B0131C2F8A030CBE700ED00E0A9
:103DC000E0150020E02A0020002900200300002048
:103DD000FF2A0020E17F00202DE9F0410D46114629
:103DE000DFF8E080D8F80040B4F5807F34BF0027CA
:103DF0001A27FFF77DFF1F292ED90021C2061CBFFD
:103E000020F01F0020302E4EEB0618BF25F01F05B6
:103E1000CBB29C4235D8D6F8C03020F01F0023F436
:103E20007F4343F48073C6F8C03040F0030426F0AB
:103E3000FBFED8F8003025F01F0141F00301C6F861
:103E40009830C6F89C40C6F8A01026F0E8FED8F8D6
:103E500000300133C8F80030BFF35F8F0522184BE4
:103E6000C3F894205A6A42F480325A62BFF34F8FEB
:103E7000BFF36F8FBFF34F8FBFF36F8F3846BDE82F
:103E8000F081C6F89830D6F89C30D6F8A02023F000
:103E90001F03984222F01F0201D195420BD090429D
:103EA00001D89D4209D2D6F89830013123F0FF03A2
:103EB000C6F89830ACE70027CEE72827CCE700BF4C
:103EC00000ED00E0E0150020BFF34F8F0549064BE1
:103ED000CA6802F4E0621343CB60BFF34F8F00BFA8
:103EE000FDE700BF00ED00E00400FA0538B54160D1
:103EF000044626F090FE05462146044819F02AF8AB
:103F00002846BDE8384026F081BE00BFE4150020F9
:103F1000014819F01CB800BFE415002070B526F068
:103F20007AFE124D0446124826F097FE2E7886B986
:103F3000FFF7EEFF26F050FF0E4B1E6026F03EFB13
:103F40000D4B0E4A1860536F43F0010353671AF08C
:103F50004DFA00F077F81AF060FA094B1860012367
:103F600020462B7026F052FE002070BD3C2500201C
:103F7000F4B10200E81500201016002000400050A7
:103F8000EC15002038B5044626F045FE0F4D0246DC
:103F90002B78FF2B04D1B4B1BDE8384026F036BEF3
:103FA0001BB9002CF8D0012103E0002C0CBFFF212D
:103FB00001210B44DBB22B70B3FA83F304495B0994
:103FC00010460B70E8E71946F3E700BF39250020DB
:103FD00038250020054B1B685843054B00F574201D
:103FE00000F23F20B0FBF3F0704700BF1016002036
:103FF00040420F0073B5114E0446337883420FD010
:104000004FF400730E4DADF8043058B101A8FEF71F
:10401000EBFF4020FFF7DEFF2B68181A2860347092
:1040200002B070BD8DF8050001A8FEF7DDFF40204D
:10403000FFF7D0FF2B681844F0E700BF292D0020C0
:104040004816002073B5002401A88DF80440FFF73E
:104050006DF82046FFF7CEFF2C4B2D4AD3F80031E8
:1040600003F0030313604FF400222A4B5A664FF407
:1040700000325A6625F0DEFF4FF4C870FFF7AAFF42
:10408000254B264A1860264913680134E4B20A2CED
:1040900041F8040BF9D1034400EBC0000344136062
:1040A000204B214D1B7813B3184BD3F8003103F08C
:1040B0000303022B23D0032B24D0012B17D125F08F
:1040C0005DFD024698B1194B194EDC680023194674
:1040D000C4F30B04013404EB84040138E4FB06014F
:1040E00002F0A0FEFFF776FF2B6803442B601F2031
:1040F000FFF770FF2B6803442B6002B070BD25F002
:1041000047FDDEE725F040FDDBE700BF0080005003
:10411000541600200090005014160020181600209D
:104120001C160020402500204816002000C0015029
:1041300040420F000122154B10B55A67144B154C25
:104140001B7813B3022026F038FEF0B126F088FA6F
:10415000D8B1A36DD90302D5E36D9A0715D40D4BE1
:104160009B6DDB0711D401220B4B1A7026F019FE50
:10417000BDE81040094B0A4A1860136F23F007038B
:1041800043F00303136725F0DFBC10BD00D00050DF
:104190004125002000C000503E250020441600208C
:1041A000008000500122014B1A7070474125002009
:1041B00070B526F039FD144E05463478FCB9134B22
:1041C0001C60134B1C60134B1C6000F02BF801208B
:1041D00026F02EFB26F020FB0F4B0246186020B97C
:1041E000284626F01CFD232070BD234640F2E7310F
:1041F0000A4802F017FE0A4B186001233370284664
:1042000026F00DFD0020EFE7442500206816002071
:1042100064160020701600206C16002018FCFFFFAA
:10422000601600201FB50024194B18689A88029068
:10423000D3F806009B7A00901648ADF80C208DF854
:10424000043026F00AFD02A88DF808408DF80C40D5
:10425000FFF7F8F9694601208DF80040FFF7AEF945
:1042600040F2FF320C4B9A615A614FF0B042936AB0
:1042700013F00803FBD113620120FFF7B9F90C20FA
:10428000FFF7E2FC0C20FFF7C3FC04B010BD00BF39
:1042900007B20200ECB102000020005810B526F071
:1042A000C3FC4FF0B04304465B695A06074A03F06B
:1042B000010003F0510348BF40F00200536126F0B3
:1042C000E5F92046BDE8104026F0A9BC00200058C2
:1042D00010B5044625F038FC0C4BA0F57A729A42D2
:1042E00012D84FF47A73B0FBF3F05C43084BB3FB86
:1042F000F0F3B4FBF3F0022806D9BDE81040032325
:10430000B0FBF3F0FCF70CB810BD00BFFFC99A3B3F
:1043100040420F0038B508460C4624F0C1FD034664
:1043200020B994E80700024D85E80700184638BD1B
:104330007416002070B5032916461C46049D01D949
:10434000212070BD02D124F0A5FD01460C4B9A7AC4
:104350008A42F5D9186809B201EB410100EB8101ED
:1043600016B1B1F90430338014B1B1F906302380AD
:104370000DB90020E5E7B1F908302B80F9E700BF5F
:10438000741600202DE9F0432A48079F847A94424E
:104390004CD9066802EB42024FEA820C16EB82020D
:1043A00046D05089002843D0B2F90440B2F90650F3
:1043B0008C42B2F908E02FDCA942A8BF2946BEF121
:1043C000000F35D000F1FF381FFA88F80EFB0849BE
:1043D0000A1B92FBFEF24D45D8BF404692B2904276
:1043E00002D3A94218BF104656F80C2052F820609C
:1043F00002EB800C18B15CF8048D46450ED08D425E
:104400001EBF1EFB00F1091909B2994209DC002008
:104410003E60B980BDE8F0832146D0E7013880B224
:10442000E8E70028F3D0013880B2DFE70E20F1E79B
:104430000220EFE77416002008B506494FF0FF3060
:10444000FFF768FFBDE8084001214FF0FF3024F07E
:1044500029BD00BF14B202007FB50222084B0949F2
:10446000CDE901234FF04073CDE90313032301A9E4
:104470004FF0FF30059324F03AFD07B05DF804FBE0
:10448000006A1800000302001B0603F0706300F0CE
:104490000F000902034301F47061120402F4702258
:1044A0000B431343014A1360704700BF0020025CB6
:1044B00060B5054619B10139B1F5806F0FD2094ECB
:1044C000F06810F48030FBD143EA012312072B433C
:1044D00002F08052134343F00043736060BD01203B
:1044E000FCE700BF0020025C0122054B9A60DA68FD
:1044F000D203FCD4D86820F00F000004000C7047F1
:104500000020025C014B1868704700BF0040025C4D
:10451000014B5868704700BF0010025C014B186BDC
:10452000704700BF0010025C014B1868704700BF65
:104530000010025C014B9860704700BF0010025CE5
:10454000014B1864704700BF0010025C014B5864B7
:10455000704700BF0010025C014B5863704700BFFA
:104560000010025C0022014B1A6070470010025CD0
:10457000024A136843F00103136070470010025CA5
:10458000024A136823F00103136070470010025CB5
:1045900043F20402014B1A60704700BF0010025C36
:1045A000024A136843F03003136070470010025C46
:1045B000044B1A6842F480721A601A6822F48072FE
:1045C0001A6070470010025C024A136843F480636B
:1045D000136070470010025C034A136823F47023D1
:1045E00043EA0043136070470010025C044B1A69F1
:1045F00002605A6942609A698260DB69C3607047F1
:104600000010025C0268044B1A6142685A618268B9
:104610009A61C268DA6170470010025C024B1A6B43
:10462000D207FCD4186270470010025C0322024BD0
:10463000186019615A6370470000025C82B01FB5B0
:1046400007930A9B04AC8B4228BF0B4604E9070082
:104650001048D100079948BF03330160099948BF4A
:1046600023F0030323F0704301F0E041194341F0CC
:1046700000518160002102F0E042019C1A4342F0A7
:104680000052C16004618261416304B0BDE8104022
:1046900002B070470000025C3F22034B1A631022F5
:1046A000DA6103229A6370470000025C024AD36B0E
:1046B0009B07FCD4704700BF0000025C044B9B6A60
:1046C00013F0240F14BF012000208000704700BFAA
:1046D0000000025C08B5FFF7F1FF064BDB6B23F42B
:1046E0007F4323F0EF0303431EBF0122024BC3F8B5
:1046F000FC2F08BD0000025C00F0FF3F4368182B50
:104700000AD0202B1DD0102B2BD1174BD3F80434FB
:10471000DB010AD401207047134BD3F804349A010B
:10472000F8D50B6843F008030B6003680F4A934207
:1047300010D10B6843F040030B600023436000205E
:104740007047094BD3F804345B01E3D50B6843F0A1
:104750000403E9E7064A9342F1D10B6843F0800372
:10476000EAE70720704700BF0000025C46250020F2
:10477000452500200B4607B50749D1F80414C907A1
:1047800008D5002100920246084600F05BF803B00D
:104790005DF804FB0120FAE70000025C1346064ABC
:1047A000D2F80424D20504D50A46014600201AF0A6
:1047B000AEB80120704700BF0000025C13B5084C82
:1047C000D4F80444E40508D5009313460A4601468C
:1047D000002000F061F802B010BD0120FBE700BF2F
:1047E0000000025C13B5084CD4F80444E40508D575
:1047F000009313460A460146002000F071F802B00B
:1048000010BD0120FBE700BF0000025C70B504464C
:104810000D4616468CB00A4A09AB07CA83E8070062
:104820001A462146CDE90563CDE90333CDE90133CD
:1048300000954FF4803019F096FF0CB070BD00BFAA
:10484000BCB20200F0B51C465B6815468DB01A0775
:10485000129E1AD1CBB17268934216D10C4B0D4AFD
:1048600053F8217009AB07CA83E807001A462946A6
:10487000CDE90533CDE90333CDE90163009447F475
:10488000807019F070FF0DB0F0BD0720FBE700BF8E
:10489000C8B20200BCB20200F0B516465A688DB02C
:1048A000102A0D46129F15D17A68102A12D10A4A91
:1048B00009AC07CA84E8070022462946CDE9054726
:1048C000CDE90344CDE901440448009619F04BFFBB
:1048D0000DB0F0BD0720FBE7BCB2020030000100C4
:1048E000F0B516465A688DB0102A0D46129F15D1A4
:1048F0007A68102A12D10A4A09AC07CA84E807006C
:1049000022462946CDE90574CDE90344CDE90144A9
:104910000448009619F027FF0DB0F0BD0720FBE713
:10492000BCB202001000010082B070B586B0149DC8
:1049300003AE202D86E807000B9359D805EB8503BD
:104940008B4203D006236B438B4253D10C9BAB426B
:1049500050D10F9BB3EB450F4CD1129A934249D1E2
:10496000012229462220159BFFF7A2FD044630BBF9
:10497000034606220E210C20FFF786FD0123CDE918
:1049800000332B4696E8070019F06CFE0E230BAAA5
:10499000009307CA2B4619F0B0FD0C23164C009368
:1049A0000EAA2B4607CA19F0D8FD636823F07F03CF
:1049B00043F026036360FFF797FD30B106242046DD
:1049C00006B0BDE8704002B07047636823F07F0313
:1049D00043F022036360FFF787FD04460028EDD112
:1049E000062311AA009307CA2B4619F0E9FDE6E752
:1049F0000124E4E70724E2E70020025C70B598B0E8
:104A0000002843D02C4C08AD0FCC0FC50FCC0FC5E0
:104A10000FCC0FC594E80F0085E80F006D4604AE7B
:104A200004F1100320340FCB85E80F0094E80F0049
:104A300086E80F00FFF7BCFD0420FFF7CDFDFFF770
:104A4000A7FD3046FFF7DEFD002408AE56F8040B44
:104A50000134FFF7E3FD102CF8D1FFF759FD0328CF
:104A6000FBD90024FFF77EFD2646FFF74BFD55F8E6
:104A7000043B01365840042E44EA0004F5D12CB121
:104A8000012206200D4B1A7018B070BDFFF790FD83
:104A90000820FFF74FFD0020FFF752FD0720FFF72A
:104AA00055FD4FF40070FFF757FD0820FFF794FD08
:104AB000FFF75EFD0020E7E7A4B3020048250020D1
:104AC00008B5FFF775FD0122014B1A7008BD00BF44
:104AD000472500201FB51AF099F8044630B101228D
:104AE00006240D4B1A70204604B010BDFFF70AFDD6
:104AF0000090FFF707FD0190FFF704FD0290FFF71C
:104B000001FD03906846FFF77DFDFFF7D9FFFFF732
:104B100047FDFFF759FDE6E74825002006289ABF24
:104B2000014B185C0020704704B402004FF400529F
:104B3000034B00209A660322C3F86022704700BF2F
:104B4000009000504FF40052034B00209A6603225D
:104B5000C3F86022704700BF00A0005000F01F02A1
:104B6000A0F50620A0F55060812810D8012309493E
:104B70004009934051F820201A4341F8202006496B
:104B800051F8202022EA030241F8202070474FF01C
:104B9000FF307047981600208416002000F01F0395
:104BA000A0F50620A0F55060812810B519D8012184
:104BB0000D4A4009994052F820300B430B4942F806
:104BC0002030D1E9004323448C682344CC68096930
:104BD00023445B1804D1C2E90033C2E902331361F4
:104BE00010BD4FF0FF30FBE7841600209816002020
:104BF0002DE9F04FA7B003921F4604460822CDE9E5
:104C00000401414021FA02F34B40980702F10802E7
:104C100018BF9B00202A1C44F4D18123B4FBF3F37A
:104C200003EBC313E41A7F4B04F506241B7804F549
:104C30005064002B39D1FDF7C9F9054600286FD122
:104C40000146402206A81BF05EFA2946402216A81B
:104C50001BF059FA744D754EA8461035AE4228BF68
:104C60002E467348013E009643461022006806A96E
:104C700018F07AFD4FF0000B81460DF1180AD94566
:104C800041D16B48009643461022006816A918F0DF
:104C900074FD4FF00008834616AEC34546D1654B00
:104CA0009D42D8D101225F4B1A704FF08108002637
:104CB000DFF894B1A4F50625A5F550635B095BF810
:104CC000232004F01F01CA40D20746D45A4A52F8A2
:104CD0002330CB40DB0732D58123002E08BF264688
:104CE000A5F6FF44B4FBF3F303EBC313E41A04F596
:104CF0000624B8F1010804F55064DBD1039B03B32B
:104D0000FEB1344625E05AF8040BFFF727FF0130C7
:104D100009D10022434B1A70424B1B78002BC4D19F
:104D20006FF091000FE00BF1010BA8E756F8040BB0
:104D3000FFF734FF0130EFD008F10108ADE7039B26
:104D400023B96FF08B0027B0BDE8F08F002E18BF9D
:104D50003446329B00201C60F5E7309B13B10023E2
:104D6000309A1360319B13B10023319A13604FF0D6
:104D7000100ADFF8BC90CDF800A000233A46214687
:104D8000D9F80000FCF724FF002838D130993A68A0
:104D90002A4BE9B19A42C1F800A01CD02146D9F8AB
:104DA0000000FDF76FF80028CBD1D7E90223DDE939
:104DB0000410834208BF8A422AD08123A5F6FF450A
:104DC000B5FBF3F303EBC313ED1A05F5062490E7E7
:104DD0009A42EAD0E2E7319B002BE6D02146D9F88F
:104DE000000016AAFCF73AFF48B9319B309A1B68BD
:104DF0001268934294D39B1A319A1360D5E7104BF3
:104E00009842CBD06328C9D00E4B9842CDD087E7CB
:104E1000039B002B9DD07B68012B9AD16FF08400FF
:104E200091E700BF49250020006D0800816D080052
:104E3000102B0020906D080084160020105D175E76
:104E4000FFDF00F0FEDF00F0981600202DE9F04FA4
:104E500087B08246894698461646DDF840B02AB1AA
:104E6000002B53D040F26C739A4252D8BBF1010F21
:104E700052D8002406F1100739460120059419F094
:104E8000DCF9054600284AD021463A461BF03BF99A
:104E900005ABCDE9014300942B460122504649461B
:104EA000FFF7A6FE044680B110F18C0F08BF6FF02B
:104EB0008D043A46002128461BF025F9284619F0B2
:104EC0009EF9204607B0BDE8F08F164BC5E902A950
:104ED0002B60C5F804B02EB13246414605F11000F2
:104EE0001BF079F8059E10483B462A46314600687B
:104EF000FCF784FF38B93046FFF730FE013008BFB9
:104F00006FF08604D5E76FF09104D2E76FF0860466
:104F1000D7E76FF09104D4E76FF08504D1E76FF025
:104F20008C04CEE7105D175E102B00202DE9F043B6
:104F30008DB08146DDE914780E4615461C469BB1BE
:104F4000B8F1000F05D16FF0860630460DB0BDE810
:104F5000F083002FF7D0B7F1005FF4D3C3F1005313
:104F600003F500439F42EED81022002108A81BF051
:104F7000CAF8002207AB029305AB019306AB31469A
:104F80000093484608ABCDE90522FFF731FE0646FF
:104F90000028DAD1059BA4B1AB4215D853EA050429
:104FA000D1D1069B0B48C8F8004000943A460799B7
:104FB00000682B44FCF70CFE002818BF6FF0910628
:104FC000C3E7AB42EDD2BEE75B1B9C4228BF1C4649
:104FD000E7E700BF102B002030B58DB00C4605462A
:104FE0001022002108A81BF08EF8002207AB0293C4
:104FF00005AB019306AB21460093284608ABCDE9EB
:105000000522FFF7F5FD044608BB099B012B21D0C3
:10501000079D134B29461868FCF734FFE8B9A5F53E
:105020000623A3F55063812B05F01F020DD8012143
:105030000C485B09914050F823204A4040F8232057
:105040002846FFF7ABFD013001D16FF08604204602
:105050000DB030BD6FF08404F9E76FF09104F6E70E
:10506000102B0020981600202DE9F04F89B00E4635
:10507000074619F064FB044619F059FB04420AD1B3
:105080000425012019F0CFFD002834D0013DF8D1CE
:105090006FF092002CE0102200210DEB02001BF0BB
:1050A00032F804A819F04DFB049B002BE8D0059BB7
:1050B000002BE5D0069B002BE2D0079B002BDFD016
:1050C0000025DFF8A08008F10409B54224D34FF48D
:1050D0008A7519F032FB044619F021FB204006289E
:1050E00036D119F021FB044201D019F022FB002037
:1050F00009B0BDE8F08F19F020FB044619F00FFB52
:1051000004EA000313F0FF03F5D0022BF3D019F0EB
:1051100008FB0442D4D0B9E719F00DFBA6EB050A51
:105120008400544528BF544699E8030000238DE8C5
:105130000300CDE9054307EB050BCDF810B0029451
:1051400004AAD8F8003007CA19F066FC2544BCE769
:1051500019F0E5FA204008289AD825FA00F0C3078C
:1051600096D5B6E730B402002DE9F0438BB0174670
:10517000DDE91545DDE913269C46DDE9173889464A
:1051800021B96FF086000BB0BDE8F083002FF8D096
:105190000EB9002CF5D1129909B9002AF1D10DB937
:1051A000002BEED1B8F1000FEBD0244A944541D149
:1051B0000288B2F5105F3DD14288B7EBD20FE0D341
:1051C00022F04001802902D0B2F5807FD9D16CB3A2
:1051D000AE421CD23219954219D29C42D1D83146E6
:1051E000224628461AF075FF2E4614F00F03C8D148
:1051F000CDE90197CDE90336CDE90543CDE9075463
:105200000993FFF793FC38B16FF09200BBE79C4223
:10521000EBD96FF08900B6E707AA04A901A8FFF748
:10522000A9FA0546FFF78EFC0543EDD10020C8F82A
:105230000040A8E76FF08500A5E700BF00444004E8
:105240002DE9F04FA9B0834617469A460E46DDF881
:10525000C890DDF8D88029B96FF08603184629B0C8
:10526000BDE8F08F002AF7D0B9F1000FF4D0349BDD
:10527000002BF1D0B8F1000FEED00024424B0CAD62
:1052800093E8070085E807003C22214619A81894F6
:105290001AF039FF3388728803F4E040B0F5804F8C
:1052A000DAD03A4E3A480BEA060646F010668642D5
:1052B00063D1B2F5807F60D147F2121293425CD184
:1052C0000620344ABAF11F0FD3680E940B9313696A
:1052D000126800FB03F3CDE90C23BDD9339B402BAF
:1052E000BAD9359B1F2B4BD909F101022026129206
:1052F000402299F800300F97042B18AFCDE9132402
:10530000CDE91572109611941794A5D1FFF70EFCF4
:1053100003460028A2D10B9B15AACDE9086305AB73
:1053200007CA83E8070002AB12AA07CA83E807008E
:10533000DDE910018DE803000F9B95E80700FFF7FA
:10534000F3FA0546FFF7FEFB55EA000384D13D461C
:10535000349A20AE2C4603CCB442106051602546EE
:1053600002F10802F6D100221146B9540132402A56
:10537000FBD12022C8F8002070E76FF085036DE7AD
:105380006FF089036AE700BFBCB202000000FFF6BD
:1053900000000209D0B20200F0B50E461D468BB0E7
:1053A000002853D0002951D0002A4FD0002B4DD0D7
:1053B000048804F44F43B3F5824F03D06FF08500A7
:1053C0000BB0F0BDE3B224F0FF04B4F5E24FB0F847
:1053D00002C0F3D1122B01D0172BEFD10CF1070132
:1053E000B2EBD10F4FEAD10733D31D4A04ACBCF561
:1053F000807F07CA84E80700E0D1122B07D1194B40
:105400001A691B681344CDE9043200230693002374
:10541000CDE907670993FFF789FB0028D0D1124A2D
:1054200002AB92E8030083E803000AAB13E9030030
:105430008DE80300079B94E8070019F072FA044610
:10544000FFF780FB204307D12F60B9E76FF086009C
:10545000B6E76FF08900B3E76FF09200B0E700BFE6
:10546000BCB20200D0B2020028B402002DE9F04321
:105470008FB01D46DDE916C600B121B96FF0860078
:105480000FB0BDE8F083002AF8D0002BF6D0BCF1B5
:10549000000FF3D0002EF1D0038803F44F44B4F58D
:1054A000824F06D1DCB223F0FF03B3F5824F408870
:1054B00002D16FF08500E3E7122C01D0172CF8D150
:1054C000C31DB2EBD30F4FEAD308D7D34FEA48023C
:1054D000571C67453CD8B0F5807FEAD1122C18BF25
:1054E0004FF000094FF0000308BF1B4CCDE908182E
:1054F00005F1010114BF4C46D4F80C90CDE90B1214
:105500000A930D93FFF712FB0028B9D1CDE9058965
:1055100002AB08AA07CA83E807000EAB13E9030031
:105520008DE803000B9B94E8070019F019FA044674
:10553000FFF708FB34B1012CBBD0072C9ED06FF0D5
:1055400092009DE700289BD104232B70376097E7DA
:105550006FF0890094E700BFD0B202002DE9F0435C
:1055600089B00E4615461F46DDF8488020B96FF019
:10557000860009B0BDE8F0830029F8D0002AF6D0F3
:10558000B8F1000FF3D0038803F44F42B2F5824F15
:1055900002D06FF08500ECE7DAB2122A01D0172AA8
:1055A000F7D123F0FF03B3F5E24F41D14488C8F8A7
:1055B000004044B9EB00B3F5807FC8F80030E8D173
:1055C000122A0DD108E0E31DB5EBD30FCFD1B4F50E
:1055D000807FDED1122A29D1354B1C681B691C44FF
:1055E0000023194670192C4414F801CD10F8012D30
:1055F0001143B2EB0C020CBF4FF0FF3C4FF0000C1C
:1056000086420CEA030343EA0203EDD10029AED03F
:10561000002BACDA109B9D4246D82A4631463846CC
:105620001AF0D9FC119B00201D60A2E70024D7E7E7
:105630003378042B9BD16B1EDB005B08B3F5807FB6
:10564000C8F80030A5D1122A06F1010318BF4FF0A7
:1056500000094FF0400205934FF000030ABF144CBD
:105660004C46D4F80C90CDE90623FFF75FFA0028EA
:105670007FF47FAFCDF80C90D8F800300733DB080B
:10568000029308AB13E903008DE80300059B94E83F
:10569000070019F012FA0446FFF754FA00287FF4C5
:1056A00068AF002CB6D062E76FF0890061E700BFF9
:1056B000D0B202000388B3F5105F0ED14388DB0837
:1056C000103B102B0CD8084A22FA03F313F0010FF9
:1056D00014BF00206FF0860070476FF085007047A0
:1056E0006FF08600704700BF010101002DE9F04F07
:1056F0008FB01546DDE918A91E46DDF868801C9FAD
:1057000009B300B3B8F1000F1DD0E7B1BAF1000F33
:1057100002D1B9F1000F16D1274B26F47E129A421E
:10572000B0F802B044D1FFF7C5FF0446A8BBB5EB03
:10573000DB0F4FEADB0306D316F47C1FC6F30545E7
:1057400004D0102D03D96FF0860426E010251B9A93
:1057500095422AD8CDE9011300231022CDE9059303
:105760000DF12809CDE9033ACDE90823CDF81C90C5
:10577000FFF7DCF9044680B907AA04A901A8FFF7DE
:105780000DF80646FFF7DEF9044656B958B92A4621
:10579000494640461AF01FFC3D6020460FB0BDE868
:1057A000F08F6FF092040025F6E76FF08904F4E7BC
:1057B0006FF08504F1E700BF0002C0032DE9F0415E
:1057C000069F0C461646054610B309B302B9FBB94D
:1057D0006288B3EBD20F4FEAD20819D34C220021D2
:1057E00028461AF090FC0D4B27F47E129A4212D1F3
:1057F0002046FFF75FFF044638B942463146281D70
:105800001AF0E9FBC5F824802F602046BDE8F0813E
:105810006FF08604F9E76FF08504F6E70002C00335
:105820002DE9F0410E4614460546002840D00029D7
:105830003ED092B10368214823F47E1383423AD1CB
:10584000AF6BF7B1C7F1100807F1280042452844B3
:1058500006D227441AF0BFFBAF630020BDE8F081F9
:1058600042461AF0B8FB1022103C3C19AA63F4D04F
:10587000284605F1280119F036FA0028EED14644F1
:10588000A863102C0CD9671E27F00F073A46314643
:10589000284619F028FA0028E0D1E41BDDD03E4468
:1058A0002246314605F128001AF095FBAC63D4E797
:1058B0006FF08600D2E76FF08800CFE70002C003E8
:1058C0002DE9F04388461F4605468BB070B169B19B
:1058D00063B10368234923F47E1088423ED113F458
:1058E0007C1FC3F3054604D0102E03D96FF0860445
:1058F0002AE0102696422BD8FFF718F9044618BB69
:10590000AB6B05F12802CDE901236B6A2A1DCDE9B5
:1059100004231023CDE9083007AB1A460390069004
:1059200005F13C0901A904A8CDF81C90FEF75AFF27
:105930000546FFF707F904466DB928B932464946CE
:1059400040461AF048FB3E6020460BB0BDE8F083AD
:105950006FF08904F8E76FF09204F5E76FF08504C3
:10596000F2E700BF0002C00310B50A46044619B1B1
:10597000024B00211B68984710BD00BF202B002060
:105980000E4B0340B3F1607F06D1B1F5885F14BFC1
:105990006FF0860000207047B3F1707F0BD101F4E7
:1059A000E043B3F5005F06D111F4E06F0CBF6FF078
:1059B0008600002070476FF0860070470000C07FAF
:1059C0008A42F8B507460C4600F019818F4922F447
:1059D000FF7323F001038B420ED08D4B22F0FF01A9
:1059E000994209D08B4822F47F7323F0030383424A
:1059F00002D0894B994228D1884B24F0FF0199426B
:105A00000FD114F0FF000BD0854B40F0007098428E
:105A100040F0F78082EA0400FF288CBF00200120BC
:105A2000F8BD7B4B9942ECD0A3F588539942E8D05E
:105A300024F4FF7323F00103B3F1062FE1D076487D
:105A40008142DED073498B42DBD004F0FE43B3F1D8
:105A5000A06F14D102F0FE43B3F1A06F40F0D180EB
:105A600082EA040333F47E1340F0CB8014F4004048
:105A7000D6D0C4F30540C2F305429042CDE7B3F15E
:105A8000407F40F0A88002F0FE43B3F1407F40F039
:105A9000B88082EA040535F47E1540F0B2803946BC
:105AA0002046FFF76DFF002840F0AB805D4B12F4FD
:105AB0007C1603EA020319D0B3F1607FC2F30546F6
:105AC00079D15949D3B243F000738B4277D003F1B7
:105AD0007E43043B0F2B5CD8DFE803F05A5A5B711E
