:1000000008100020410100003B280000DB24000014
:100010003B2800003B2800003B2800003B28000054
:100020003B2800003B2800008C3300003B280000E8
:100030003B2800003C3300003B2800003B28000028
:100040003B2800003B2800003B2800003B28000024
:100050003B2800003B2800003B2800003B28000014
:100060003B2800003B2800003B2800003B28000004
:100070003B2800003B2800003B2800003B280000F4
:100080003B2800003B2800003B2800003B280000E4
:100090003B2800003B2800003B2800003B280000D4
:1000A0003B2800003B2800003B2800003B280000C4
:1000B0003B2800003B2800003B2800003B280000B4
:1000C0003B2800003B2800003B2800003B280000A4
:1000D0003B2800003B2800003B2800003B28000094
:1000E0003B2800003B2800003B2800003B28000084
:1000F0003B2800003B2800003B2800003B28000074
:100100003B2800003B2800003B2800003B28000063
:100110003B2800003B2800003B2800003B28000053
:100120003B2800003B2800003B2800003B28000043
:100130003B2800003B2800003B2800003B28000033
:1001400008B50D4B83F30A880C4B09A1D1E90001D6
:10015000C3E9000101F0E8FC01F0D8FC00F0FCFB71
:1001600001F0AEFC01F0C0FC00F0A4FBAFF3008096
:10017000A5EDF5FEA5EDF5FE080000200810002015
:100180000348044B834202D0034B03B11847704726
:10019000381300203813002000000000064B0749E8
:1001A000C91A891048BF0131491003D0044B0BB163
:1001B00001481847704700BF38130020381300204B
:1001C0000000000010B5064C237843B9FFF7D8FFB4
:1001D000044B13B10448AFF300800123237010BD1A
:1001E0005210002000000000F435000008B5054B57
:1001F0001BB105490548AFF30080BDE80840FFF793
:10020000CDBF00BF0000000010100020F43500003A
:100210000023024A1370024A1370704754100020E2
:100220005310002038B503780446042B0D463FD008
:1002300009D8012B0BD0032B4FF018033CD040F60C
:1002400003102B7038BD182B36D0432BF4E7224B0C
:100250004278197801BB012A03D0152340F6041017
:10026000EFE71A70A3781344FF2BF6D10022802108
:10027000E01C02F05FFA94F88320C0F30F239A4247
:1002800021D194F88430C0B2834220D1134B6278DC
:1002900000201A700623D4E7104B1B7893420ED02F
:1002A0000133DBB29342DDD0152340F60510C8E7D9
:1002B000062340F60710C4E740F60810C1E70623FE
:1002C00040F60610BDE7152340F60210B9E71523E6
:1002D00040F60110B5E700BF531000205410002075
:1002E00010B590B02C22002105A802F008FF054BA4
:1002F00001AC0FCB84E80F00214605A800F03AF8C6
:1003000010B010BD5832000010B592B04722184905
:10031000684602F0D7FE02F09EF80A22C0F303639B
:10032000092B8CBF373330338DF81430C0F30343BF
:10033000B3FBF2F102FB113300F00F0030338DF804
:100340001730B0FBF2F302FB130001F13004303040
:1003500003F130018DF819108DF81A0001224721A0
:1003600068468DF8164000F003FD002012B010BD65
:10037000683200002DE9F04F0024ADF51F7D4FF4E9
:1003800096720546884653A821468DF80F4002F024
:10039000B6FE2146482205A802F0B1FE2146682299
:1003A00017A802F0ACFE3C2700F092FB01264FF0AC
:1003B000FF34DFF81C93DFF81CA3DFF81CB3731EB7
:1003C000052B09D8DFE813F00C001E0041005B008C
:1003D0005001C0000426F2E7FFF796FF0126EEE782
:1003E0004FF47A7104A802F0EAF838B99DF8103099
:1003F000312B05D0322B0CBF052600263C27DEE72B
:100400000226FBE701221121AE4800F0B1FC2C22AC
:100410000021284602F073FE202317AA05A953A83D
:1004200000F072FE0026FF23012105206B706E8014
:1004300000F074FB00F0E8FC18B10121304600F038
:1004400059FDFFF7E5FE0326B9E7432001F089FFD8
:1004500000214FF47A7000F061FB00F0D5FC18B970
:1004600000F082FB0028F8D000F0CEFC0028B1D1CB
:10047000013FA4D1182001F074FF00269FE700215E
:1004800085220DF1C50002F03AFE002140F6B83099
:1004900000F044FB00F0B8FC88B34FF47A7300938B
:1004A000012304AA19460DF1C50000F0D1FC9DF806
:1004B000C530012B0DD140F6B832842100920DF1E8
:1004C000C60004AA00F0C4FC049B0446842B1AD185
:1004D000D8B90DF10F010DF1C500FFF7A3FE40F6ED
:1004E0000713984204461AD1AB78A3B1EB7893B1C5
:1004F00006269DF80F00182808BF062608E000F021
:1005000033FB0028C6D040F2047415208DF80F008C
:1005100001F027FF53E718238DF80F30E8E7002894
:10052000E7D19DF8C530012BE3D180232946CDF8D2
:10053000008032AA53A800F021FE04460028D8D03B
:1005400018238DF80F30D4E70121002000F0D2FCF1
:1005500001210A2000F0E2FA9DF80F300122062B5B
:100560000BBF1B211A215046584600F001FC9DF894
:100570000F30062B81D0A4F51063B3F5E06F4FF078
:10058000010213D21121504800F0F2FB40F606138D
:100590009C4213DCB4F5106F10D0A4F60213042BA8
:1005A0004ED8DFE803F04F474B5153001021474826
:1005B00000F0DEFB40F606139C421ADC9DF80F307B
:1005C0009F2B4FEA13108CBF3730303000F008FCFF
:1005D0009DF80F0000F00F0009288CBF3730303035
:1005E00000F0FEFB0D2000F0FBFB0A2000F0F8FB02
:1005F00043E7A4F58053013B092BDFD8A4F58053D2
:10060000013B092BDAD801A252F823F06106000061
:10061000BD050000BD050000650600005506000090
:100620005D0600006106000059060000510600004A
:100630006106000021238DF80F30BFE72223FAE77F
:100640002323F8E72423F6E72523F4E72723F2E71B
:100650004123F0E74323EEE74423ECE74523EAE7B1
:100660004F23E8E75023E6E7AB782BB3EB781BB3D7
:100670002B785A0708D5A86A01F0F8FE20B14FF48C
:10068000A03000F0EFF8F8E62B789B070AD56E68EB
:1006900001F0E1FE864205D9696A4FF4A03000F00E
:1006A000B1F8EAE640F2012000F0B2F9012213218C
:1006B000484600F05DFBE0E640F2032000F0A8F9B8
:1006C000DBE600BF18330000D2320000C232000067
:1006D000AF320000FD320000E3320000F0B5421EF0
:1006E000D11C034685B018D86E460D4C04F1100796
:1006F000354620686168083403C5BC422E46F7D1F0
:1007000004A90F3311F8014D12F8010F844204D1EE
:100710009A42F7D1012005B0F0BD0020FBE700BFF1
:1007200029330000F0B50368044603F16043B3F5D4
:10073000004F4FF000069FB030D8B26A4368176987
:100740009F422BD8B3F5002F28D8456B07F1400303
:10075000AB4253D8B5F5002F50D82846FFF7BEFF5F
:1007600000284BD0284601F05CFE80B16B6973B164
:10077000022B0ED1AB69C4F1040119444FF0FF32D2
:10078000204601F017F81E4BC31A584258411FB0BB
:10079000F0BD766B3046FFF7A1FF08B90020F6E701
:1007A000A7F150039E42F9D8284603A901F040FE64
:1007B0000028F3D0039DAF42F0D8AC42EED8B5F597
:1007C000002FEBD804A801F0B1F821462A1B04A899
:1007D00001F0CEFF04A801F0CDFF01F0BBF8044604
:1007E00001F0BCF823460090294605F1200204A838
:1007F00001F022F8B0FA80F04009C8E70120C6E70E
:10080000E320BBDE70B54FF0FF328AB005460C46E0
:1008100000F0D0FF114B98421CD140F2022000F0B2
:10082000EBF80F4E2022002102A802F068FC2946B6
:1008300001A8019602F0F5FC211F01A802F0F1FCCD
:1008400002F0F8FBB04202D101A802F0FFFB01A8C0
:1008500002F05EFC00200AB070BD00BFE320BBDEEA
:100860000100064310B504468AB040F2022000F0B1
:10087000C3F82022002102A802F041FC054B2146CA
:1008800001A8019302F0CDFC01A802F041FC002078
:100890000AB010BD0000034340B139B100230B6022
:1008A000034B03600B6843F480430B60704700BF49
:1008B0001424004010B501F06BFA01280DD1234B30
:1008C00004205A6E4FF4802321494B6601F51041F4
:1008D000086250035CBF1F4A53664FF04023D3F8B1
:1008E0008420110606D44FF400621A67D3F88420DE
:1008F000D206FBD401F0CDFD01F0D9FD08B100F026
:1009000065F801F029FD01F029FD18B14FF40170DF
:1009100000F07EF8FFF7E4FC044601F021FD34B955
:1009200040F2012000F074F84FF4017009E040F249
:1009300003739C42F4D0A4F20574012CF4D840F265
:10094000032000F065F8002010BD00BF00800040CB
:100950000090004000A00040012307B58DF806304C
:100960008DF8073001F0A3FD20B100238DF806308B
:100970008DF807304FF4A0335B68013308D14FF492
:10098000027000F039F800238DF806308DF807303A
:100990009DF8073063B14FF4A030FFF7C3FE8DF828
:1009A00006009DF806301BB94FF4027000F024F8E1
:1009B0009DF806302BB14FF4A030034B986001F046
:1009C0006CFD03B05DF804FB00ED00E04CF23C323E
:1009D000014B5A80704700BF000000204AF6C0302B
:1009E000044B5B8823F00F039BB21B1A58425841FB
:1009F000704700BF00000020044A08B51080FFF7D0
:100A0000EDFF10B94FF20F03538008BD0000002026
:100A100008B5FFF7F1FFBFF34F8F0549054BCA68D3
:100A200002F4E0621343CB60BFF34F8F00BFFDE7DA
:100A300000ED00E00400FA054FF20F01084B5A8860
:100A40008A4201D1188870473AB91B8840F20220C7
:100A5000012B18BF4FF4007070474FF400707047BF
:100A6000000000204FF4003208B5044B9A6601F0F4
:100A7000F3F8B0FA80F0400908BD00BF00900040D4
:100A8000072BF8B506460F4614461D4601D900202F
:100A9000F8BD0121202001F055F80121212001F0AD
:100AA00051F88CB144EA06039B07F0D14FF40032B1
:100AB000064B31469A66284623463A4601F0F6F838
:100AC000B0FA80F04009E3E70120E1E70090004040
:100AD0001FB510220E4B5A6600F02AFA4FF47A2303
:100AE000B0FBF3F00B4B0F22186000210DF1010059
:100AF00002F005FB01238DF8003040F2FF33694618
:100B00000548ADF8023001F0BCFE05B05DF804FB0D
:100B100000900040281000200080044030B50D4DAA
:100B20000D4A2D68536A15FB00F515FA83F09CB247
:100B300080B2A0422CBF00240124084B1880084B2F
:100B40001C7011B1536A8342FCD1012305494B61EA
:100B5000936130BD28100020008004405010002018
:100B60005510002000A00440094B0A4A5869127829
:100B700000F001000AB108B9704738B9586A064B4D
:100B80001B88984234BF0020012070470120704725
:100B90000080044055100020501000202DE9F84F2F
:100BA000DFF89481584BD8F80020584E9A42584F9D
:100BB00007D12923C8F80430564B33604FF4A023E3
:100BC0003B60554B02F13C01DFF87091996002F1F6
:100BD0002403C9F82430C9F804304FF08063DFF8EB
:100BE00060A14FF0010BCAF864304FF40073CAF8EB
:100BF000643002F58053C3F804B040F6AA630024C1
:100C0000536141F20503454D454802F5005194609A
:100C1000D465D3601461D461D4648864C5F83C465B
:100C2000C5F85446C5F84C46C5F84446C5F848468C
:100C3000D3609368936000F07BF93A4B4FF4E11274
:100C40001B6F0521C3F380235B44B0FBF3F303F573
:100C5000E1435B01B3FBF2F3334A203B02EAC303F7
:100C6000D8F800202046D3615B46042200F08AFFBA
:100C700020465B465A46062100F084FF1423C5F83F
:100C80003C364FF4A023C5F854364FF4C023052258
:100C9000C5F84C36D8F8003003215A614FF0F052B5
:100CA000224BCAF86410C3F804B09A605C629C637B
:100CB0001C645C653A681E4802607A7B1A66FA7AA0
:100CC000BC7A120542EA04423C7B42EA4452DA65AD
:100CD000C3F8709032684260727BC3F89020F27A59
:100CE000B07A120542EA0042307B42EA4052C3F831
:100CF0008C20104A51630222C3F848B003F5805398
:100D00001A61BDE8F88F00BF000006403C100020CB
:100D10002C100020020005001813002000C0034022
:100D2000FFFF010000800040F8FF7F00000004404A
:100D3000004004400020044028130020D812002066
:100D400000900040084B586B10F0020006D00222C1
:100D50009A6203F5005301205A637047DB6A9B07D0
:100D6000FBD40222014BF6E70000044000200440BF
:100D700070B54E1E7E2E0446154622D8FFF7E2FFC0
:100D800010B32046124B214410F8012B884203F87F
:100D9000012BF9D10F4B1A8866F30E121A800E4AF6
:100DA000C2F8A030022393640DB9002070BDFFF794
:100DB000C9FF0028FBD0094B1A6893699B06FCD534
:100DC000F3E741F20310F1E741F20620EEE700BF3E
:100DD00056100020181300200000044028130020A3
:100DE000014608B5FFF7AEFF0028FBD0054B1B6896
:100DF0009A695006FCD5D9639A699206FCD5002001
:100E000008BD00BF281300200E4A0F4B106840F2A7
:100E10000112DB6E934205D190B10023C0F5007042
:100E20001844704740F2022293420EBF4FF4807381
:100E3000064A9B1A984202D0F0D2181A7047002036
:100E4000704700BF4C10002000000440D610002066
:100E50002DE9F843089D04460E461746F3B9FFF7FF
:100E6000D3FFB04228BF304600214FF001084FF0B9
:100E700002091D4A054604EB000C1368DFF870E018
:100E80001A4864451CD101B1136007B13D6041F2BD
:100E90000420AE4298BF0020BDE8F8832DB1FFF7D3
:100EA00017FE00212846FFF739FEFFF7ADFFB042DD
:100EB000D5D2002DF9D0FFF757FE0028F5D0CEE7A8
:100EC0001EF803100133B3F5007F04F8011B04D1B1
:100ED0000023C0F810900121D3E7B3F5807F08BF4D
:100EE000C0F81080F7E700BF4C100020001004404D
:100EF000D610002010B10222094B9A6271B1012272
:100F00000020074B07499A624A6307491967074956
:100F100008609A64022203F580531A61002070472A
:100F20000000044000200440D81200204C10002093
:100F300030B51C4B87B001AA03F1100514461868A0
:100F40005968083303C4AB422246F7D11B7823709B
:100F5000154B1B6F03F00703032B1FD04FF48022A8
:100F6000124B5A66124A9368C3F30443102B17D8E6
:100F700018336B440F4913F8143C4B430E498B4212
:100F800003D19268C2F30162D340074A106FC0F3E5
:100F900003300130B3FBF0F007B030BD074BF4E78E
:100FA000074BF2E7D433000000800040009000407F
:100FB0000000014040420F0000093D0000F04902DE
:100FC000C0EA210130B5024600230C25054905FB86
:100FD00003F460180C59944203D001330C2BF6D162
:100FE000002030BDE8330000F0B50023082787B0AB
:100FF000CDE9013315463B46009704AA044601F0AB
:1010000009FB41F203039842064623D194F843308A
:1010100053B13A46E06C04A901F0AAFB04AA3B468E
:101020001146A06C01F093FB059A049B6A6094F84A
:1010300043202B6052B9094A934207D0084A934291
:1010400004D00822E06C04A901F092FB6B682365D0
:1010500000236365304607B0F0BD00BFF70A0AF70A
:10106000FC0404FC2DE9F04799465B6804460F46F2
:101070009046002B3ED011F003033ED19B6A006ED8
:101080001B6981181D1DA9421BD31C33984218D21D
:10109000A842024638BF2A46994294BFC2EB010AD1
:1010A000C2EB030A101A3E18C5F16800104431461D
:1010B0005246204402F006F85246FF21304602F024
:1010C0001EF8226E0E4B9A420BD80E4902EB080016
:1010D000884206D99B1AFA58C4F880204FF0FF3294
:1010E000FA50D9E9003542463946206EA847236EAA
:1010F000434423660020BDE8F08741F20200FAE78E
:1011000004400100074001002DE9F04100254FF0A7
:10111000FF3704468846164603F0200380F8423025
:101120001822FF21C0E91855A0F8405080F843501C
:10113000A0F8445080F84650C0F88870683001F03C
:10114000DEFF88222946C4E91286C4F88070C4F8FC
:10115000847004F1900001F0D2FF074BC4F82071B5
:10116000C4E946350123A4F8243116B1304600F015
:10117000DDFB0020BDE8F081000101012DE9F04F09
:101180009BB09946CDE90723002304460E464FF055
:101190000108249D09930999B7E094F846300C2B77
:1011A00000F2AF80062B7BD908FA03F212F4286F05
:1011B00040F0DD8112F4885F40F09C810A2B40F002
:1011C000A480DFF80CB4636D072B00F24D814FF063
:1011D000080A38232046CDE90188CDF800A00CAAE2
:1011E00007A901F017FA41F20303984240F0A680E4
:1011F000337843F0040333700D9BB36273785F0759
:101200001CD50020236DCDF828B0C4F8843094F8A4
:101210004530606643F0020384F84530EF686FB1F3
:1012200004222B680AA9B847606E2B685246EF6803
:101230000CA95044B847636E103363660B2384F8DF
:101240004630C0E7A3F10E02052A00F23C82DFE837
:1012500012F0A9020600F400EC01EC01A70200273D
:10126000636D0F2B00F29980102320460093CDE987
:10127000018740230AAA07A901F0CCF941F2030330
:1012800098425BD1D4F848A000F06CFB8023022187
:10129000CDE900030BAA0123504600F0A3FADFE7D3
:1012A000013B052B36D8DFE813F07A007400060006
:1012B0006201D2002D010127636D072B00F2D4805B
:1012C000082320460093CDE9017740230AAA07A905
:1012D00001F0A0F941F2030398422FD133780B9A21
:1012E00043F0020333700A9B7360236D083B736203
:1012F000002A00F0E080132384F8463041F2010018
:101300001CE0A3F10D02062A9CD94945FFF445AF24
:10131000002064E020460AAA07A9FFF765FE41F213
:10132000030398420AD10B9B0A9A23650023636545
:10133000A54B9A42DFD1022384F8463041F20303E1
:101340000590059A9A423FF426AF47E008232046CD
:101350000093CDE9018740230AAA07A901F05AF9B1
:1013600041F203039842E9D10A9B03F07F43B3F1B2
:10137000407F05D0132341F2090084F84630DDE7B1
:101380000B9BD80706D594F8423043F0010384F84C
:1013900042300027636D072BD8D90123AFE02046E8
:1013A0000AAA07A9FFF720FE41F203039842074665
:1013B00009D10A98FFF706FE024698B9132341F2B5
:1013C000080784F8463041F203030597059A9A42CC
:1013D0003FF4E1AE059B0BB10023F37005981BB001
:1013E000BDE8F08F437994F82511994205D913236C
:1013F00041F20E0784F84630E5E701687348814200
:1014000005D01189C90748BF013384F8253194F804
:101410004230D8070DD5118994F84330890706D595
:101420003BB1132341F2010784F84630CBE7002B90
:10143000F7D0137984F84630C5E7226D0123A26501
:10144000002284F84330E26584F84630A3E60021A8
:101450003C220BA80A91012701F051FED4E9143275
:10146000934204D884F8467041F2030066E7009383
:1014700020464023CDE901770AAA07A901F0CAF85E
:1014800041F2030398427FF459AF0DF1280C06F1A5
:1014900008030DF1400E624603CA72451860596098
:1014A000944603F10803F6D110681860337843F0CE
:1014B00001033370D2E7042384F8463094F84530B2
:1014C000626643F0010384F84530F5E604232046C4
:1014D0000093CDE9017740230AAA07A901F09AF801
:1014E00041F2030398427FF429AF226D0A9B042A3C
:1014F00001D923660127636D032BE7D9092384F8FB
:101500004630B1E70023636607239DE79F423ED83C
:101510009F4228BF1F4640232046CDE901880097FF
:101520000AAA07A901F076F841F2030398427FF472
:1015300005AF94F846B0BBF1070F37D0042FC7F1C1
:10154000040A88BF4FF0000A0AAB5246FF21D8199F
:1015500001F0D5FDBBF1090FBA443BD12B465246F1
:1015600020460AA9FFF77EFD00287FF4E7AED4E904
:1015700014739F427FF611AFFF1ADDE908329B1A00
:1015800094F84020032F1344C0D9032B05D82046DC
:1015900007A901F01EF80020D0E6402F28BF402701
:1015A0009F4228BF1F4627F00307B4E7D5F808A0DD
:1015B000BAF1000FC2D02B683A46606E0AA9D04734
:1015C000636E3B446366D2E7EB17A603F90707F99E
:1015D000EB17A65EBBF1040F1DD173789807C6D533
:1015E000EB68002BC3D0626E042A0BD80AEB02030F
:1015F000062B07D90BAB9B1A1A68C4F884204FF04E
:10160000FF321A60EF682B685246606E0AA9B8472D
:10161000636E5344D6E7BBF10B0FA8D1737859071B
:10162000A5D5EF68002FEED1A1E700218A6A496BAA
:101630001269503A91423FF661AE112B0AD194F8EB
:101640001831002B7FF4A9AE132341F2060084F871
:10165000463073E694F84430002B7FF49EAECDE91B
:1016600001334023204600930AAA07A900F0D2FFC5
:1016700041F2030398427FF461AEE06C01F07AF826
:1016800094F818316BB104F1B4030093E06C04F1E9
:10169000940312AA0AA900F0CFF878B10023F370DE
:1016A000D2E7D4F84CA000F055F9074600F056F9FF
:1016B0003B46009012AA50460AA9ECE70123F370BA
:1016C00084F8443069E600234FF00408CDE9013383
:1016D00020464023CDF800800AAA07A900F09AFF0F
:1016E00041F20303984209D1D4F888202F4B9A4243
:1016F00006D0132341F2050084F8463005906DE6CC
:101700000123F37094F84530DA0707D5EF682FB15D
:10171000424640462B6804F18401B84794F84530AE
:101720009B0707D5EF682FB104222B68104604F100
:101730008401B847236E63B36F6857B34FF0FF332C
:1017400004F180080422414606A8069301F0C7FC74
:1017500020B1042241462B681548B84704F16809B6
:101760000422494606A801F0BAFC90B100239B6A06
:101770001422D3F8108004F16C0108F10800D5E9B7
:101780000037B847D5E900370422494608EB020084
:10179000B8470123B3700E23002084F84630ADE72C
:1017A0000023F37041F2070019E600BFE320BBDE1F
:1017B0000440010030B50824094B00255C66012473
:1017C00003F5FE235C6001449D601A61DC60884281
:1017D00001D1586A30BD10F8012B1A62F7E700BF3B
:1017E00000900040F8B516464FF400521D46114BCC
:1017F00004469A660222C3F860220F4601F020FBDD
:10180000DDE90612204601F01FFB002384F8387042
:1018100063623368C4F839307368C4F83D30B36824
:10182000C4F841302B0C6DBA84F84530A4F846500A
:10183000F8BD00BF009000402DE9F041B0B0144663
:101840000D461A460646369B002867D0002965D00B
:10185000002C63D0002A61D0002B5FD006214FF40A
:10186000005006912F4920AF88660320C1F860021E
:101870000021BE4609910C910F9105F12008F44614
:10188000286869680835ACE803004545E646F6D1A6
:101890000DF1A00C04F1200E654620686168083443
:1018A00003C57445AC46F7D10DF1400C654602F115
:1018B000200E2C4610685168083203C47245254634
:1018C000F7D118AC03F1200522461868596808338F
:1018D00003C2AB421446F7D14023CDE90A73089303
:1018E00020230AAA0E9303AB07CACDF81CC00D969D
:1018F00083E8070007AB93E807008DE807000DAB0E
:101900000ECB094801F0D6F90690069B40F2046020
:10191000002B08BF002030B0BDE8F08140F201602C
:10192000F9E700BF00900040103500004FF400526E
:10193000074B10B59A6602220446C3F8602200F0F5
:101940001CFF2046BDE81040002100F01ABF00BF78
:1019500000900040004870474CE307000048704783
:101960006CE307000048704786E207002DE9F34763
:101970001446DDE90A920D461F4600284DD14CB3AE
:1019800013683F2B2AD8516851B32549002F14BF43
:10199000B846884603F03F061B19136022BF536800
:1019A00001335360FEB93F2C0ED9A3092A46009398
:1019B00041463B46002000F0FDFE24F03F031D445D
:1019C00004F03F0434B100262246294609EB060004
:1019D00001F078FB002002B0BDE8F087B846D9E7F7
:1019E000DFF83C80D6E7C6F1400A5445ECD32946DF
:1019F000524609EB060001F065FB012326440093E3
:101A00004A463B4641460020A6F1400400F0D2FE83
:101A10003F2C5544D6D9B846C7E70248DBE700BF9C
:101A2000B834000080AFFFFF2DE9F041174614687D
:101A300086B01E46E3008DF80F3063098DF80E3036
:101A4000630B8DF80D30630D8DF80C30536805462F
:101A5000DA0002EB54728DF80B2004F03F045A09AF
:101A6000372C8DF80A204FEA53324FEA53538DF842
:101A70000920884694BFC4F13802C4F17802CDE948
:101A800000178DF808300D4903460020FFF76EFF60
:101A900008222B460020CDE900870DEB0201FFF75D
:101AA00065FF284605F1200350F8042B984246F8BC
:101AB000042BF9D1002006B0BDE8F0817834000095
:101AC000064B0748DA1C121AC11E22F00302994283
:101AD00088BF0022034901F0F5BA00BF3813002087
:101AE000D812002000360000064B0748DA1C121AF4
:101AF000C11E22F00302994288BF0022002101F09A
:101B0000FEBA00BFD8120020101000200348044A7B
:101B10000449121A921000F091BE00BF400100006B
:101B200040010000D8120020044B054A9A60D3F807
:101B3000882042F47002C3F88820704700ED00E06E
:101B400000000000420910B50FD0012A0FD00A4B47
:101B50000A4C022A18BF234600F01F0049B103F5C2
:101B60008053012282401A6010BD1346F4E7044BF3
:101B7000F2E703F50053F4E768800040608200401C
:101B800064800040F8B504460D461F4616464AB12B
:101B900001238B403021184A01FB0022F7B141F2AA
:101BA0001001535004EB4403072D4FF00F014FEA8F
:101BB000031316D8A80006FA00F281400F48184413
:101BC00000F049FE4EB9012330210B4AAB4001FB26
:101BD000042277B141F210015350F8BD42F21001D6
:101BE000DFE7A5F10800800006FA00F28140044812
:101BF000E5E742F21001EFE700C0034004C00340F4
:101C00000CC00340F0B5114A114C124E00F0010512
:101C1000E3695F0713D40DB9334213D103EA000718
:101C20008F4207D10B4A1A40002A0CBF00206FF0E8
:101C30000100F0BD013AEBD16FF00200F9E74FF07F
:101C4000FF30F6E76FF00100F3E700BF80969800E1
:101C500000000340020001004FF4003238B50F4B82
:101C60000F4C9A6641F671330122E569E3630D4B2F
:101C70000021DA60022360612120236105F48035B0
:101C8000FFF7C0FF10B92120FFF7BCFF0122064B70
:101C9000DA600DB10023E36338BD00BF009000405F
:101CA0000000034000100340002003402DE9F04FE6
:101CB00001244FF440262C4DDFF8C4C04FF4003708
:101CC000CCF8044045F8206030250026DFF8B4E069
:101CD000DFF8B49005FB00E5EE652E662E67234E17
:101CE000DFF8A8A0B76641F67136214F04FA00F07C
:101CF000D7F81C80FE631F4EF46043B901211E4AD1
:101D000018F4803FD16029D10020BDE8F08F01F5A3
:101D1000005404EA0904641A9C4228BF1C467961F5
:101D2000D7F81CB0A6081BF0040F19D1013E3601EC
:101D300046F060566E66AA66C5F86CA0CCF8240022
:101D4000DEF834603042FBD00C4E21447063042630
:101D5000CCF8280022443E611B1BCEE7FB63D3E78F
:101D60004FF0FF30D1E700BF00400440009000403A
:101D70000000034000100340002003400020044006
:101D8000001004400000044000E0FFFF1800034082
:101D9000024B1868C0F30740704700BF0080E00F97
:101DA00060B5054619B10139B1F5806F0FD2094E02
:101DB000F06810F48030FBD143EA012312072B4373
:101DC00002F08052134343F00043736060BD012072
:101DD000FCE700BF0020024C0122054B9A60DA6844
:101DE000D203FCD4D86820F00F000004000C704728
:101DF0000020024C0322024B186019615A6370479D
:101E00000000024C82B01FB507930A9B04AC8B42C2
:101E100028BF0B4604E907001048D100079948BFC6
:101E200003330160099948BF23F0030323F0704393
:101E300001F0E041194341F000518160002102F0BE
:101E4000E042019C1A4342F00052C1600461826189
:101E5000416304B0BDE8104002B070470000024C7E
:101E60003F22034B1A631022DA6103229A63704700
:101E70000000024C024AD36B9B07FCD4704700BFA2
:101E80000000024C044B9B6A13F0240F14BF012086
:101E900000208000704700BF0000024C08B5FFF72B
:101EA000F1FF064BDB6B23F47F4323F0EF03034387
:101EB0001EBF0122024BC3F8FC2F08BD0000024CDC
:101EC00000F0FF3F4368182B0AD0202B1DD0102BA9
:101ED0002BD1174BD3F80434DB010AD4012070470F
:101EE000134BD3F804349A01F8D50B6843F0080378
:101EF0000B6003680F4A934210D10B6843F0400314
:101F00000B600023436000207047094BD3F8043472
:101F10005B01E3D50B6843F00403E9E7064A93420B
:101F2000F1D10B6843F08003EAE70720704700BF58
:101F30000000024CD7120020D61200200B4607B535
:101F40000749D1F80414C90708D5002100920246B8
:101F5000084600F033F803B05DF804FB0120FAE70F
:101F60000000024C0B4607B50749D1F80414C90715
:101F700008D5009201210246002000F01FF803B0AE
:101F80005DF804FB0120FAE70000024C1FB50A4C83
:101F9000D4F8044464070CD5CDE900120021069C56
:101FA0000222CDE902340346084600F031F804B0BD
:101FB00010BD0120FBE700BF0000024CF0B51C463D
:101FC0005B6815468DB01A07129E1AD1CBB17268A4
:101FD000934216D10C4B0D4A53F8217009AB07CA36
:101FE00083E807001A462946CDE90533CDE90333D6
:101FF000CDE90163009447F4807000F085FD0DB0D9
:10200000F0BD0720FBE700BF08350000D834000012
:102010002DE9F0418CB0DDE9127C7C681E46DDE9DB
:10202000143E200728D13CB3DCF80400844223D1BD
:102030005868102820D1DEF8040010281CD10F4861
:1020400009AC50F821500E4951F822800D4A07CAB8
:1020500084E8070045EA080022463146CDE9054EEE
:10206000CDE90344CDE901C4009740F0300000F011
:102070004BFD0CB0BDE8F0810720FAE70835000001
:10208000E4340000D83400000138C0B206289ABFFA
:10209000014B185C00207047EB3500000138C0B2DE
:1020A00006289ABF014B185C00207047E4350000F9
:1020B0002DE9F04FBBB0804603A880E80E001E4615
:1020C0007A4B1746D3F800248A46D4069DF810911F
:1020D00003D401203BB0BDE8F08F08F1FF32062A9F
:1020E0006DD8DFE802F004191F252B313700D3F833
:1020F0000C34D807EDD5012307930023B9F1010F64
:10210000CDE908332CD0B9F1020F5AD04046FFF781
:10211000C5FF6324054631E0D3F80C349907D8D5C0
:102120000223E9E7D3F80C345A07D2D50423E3E7B6
:10213000D3F80C341B07CCD50823DDE7D3F80C34D7
:10214000DD06C6D51023D7E7D3F80C349C06C0D5DE
:102150002023D1E7D3F80C345806BAD54023CBE777
:10216000524BD3F80C34D903B3D5079B404643F404
:10217000C0630793FFF788FF032405461323042257
:10218000009307A94FF0005312A800F07BFC5146C2
:10219000009446F000533A4600F074FC4FF0000BF8
:1021A00004465E46DDF814A1469B9B452CD1B9F14F
:1021B000030F42D14046FFF771FFB84237D00720E6
:1021C00088E73A4BD3F80C24D20382D5D3F80C34E9
:1021D0009B037FF57EAF97B17C423946374604F0CA
:1021E0000304079B404643F4E0630793FFF74CFF6B
:1021F00024023E4605460F4644F0A304BEE70421F0
:102200000DF1200A0C46ECE7DAF8042016444AB136
:10221000032300932046DAF80830DAF8001000F0C3
:1022200031FC04460BF1010B0AF10C0ABCE74046F5
:1022300000F08AFD01383042C1D17EBB0323324613
:102240002046009308A9334600F01CFC04260446EF
:10225000103C204600F02BFC2046314600F032FCBA
:10226000489BAB4228BF2B461C46EBB100232246BD
:1022700000934799499B0AA800F004FC2A1B04D04C
:1022800000231946009300F0FDFB103800F00FFC0E
:1022900012A80AA900F0EBFB00201BE716F00306CA
:1022A00018BFC6F10406D3E70AA8E7E70000024C0E
:1022B0004FF40052034B00209A660322C3F86022B9
:1022C000704700BF009000404FF40052034B0020C5
:1022D0009A660322C3F86022704700BF00A0004046
:1022E000074B08495A6E4FF48033D20358BF064A51
:1022F0004B6601F5E621D1F8040658BF53667047D6
:10230000008000400090004000A0004010B5FFF7A2
:10231000E7FF00F1C043A3F58043B3F5606F17D822
:1023200002680C4B9A4213D103690533B3F5007F61
:102330000ED2002211469A4205D350F82300431AC8
:102340005842584110BD50F8224001326140F2E736
:102350000020F7E7DEC0ECE500F012B8FDF7D4BFCF
:10236000704710B50446FEF73BFD182C07D12046F8
:10237000FEF736FD2046BDE81040FEF731BD10BD2A
:10238000FEF70CBCC0F30C032DE9F04105460F46E7
:1023900016460BB9FEF766FB05F5005424F4FF540E
:1023A00024F01F0405EB0608A04507D8324639463D
:1023B0002846BDE8F0410223FEF762BB2046FEF747
:1023C00051FB04F50054EFE770B40025AD6A0346F5
:1023D0002E69864206D86C6913449C4202D370BCB5
:1023E000FFF7D0BF70BC7047B0F5D42F70B50D4665
:1023F000144615D2C0F5D423934200F5A0360FD36E
:1024000038B9836A5A69B2F5A03F02D91869FEF754
:1024100029FB224629463046BDE87040FFF7B2BF8F
:1024200070BD036913F0FE0F0CBF01200020704740
:1024300038B504460D46FEF751F938B16369012BF2
:1024400007D12046FFF7EDFF10B1A46901202C60F1
:1024500038BD0020FCE700239B6A9868704708B5E8
:1024600000F0CCFDB0FA80F0400908BD4FF0FF331A
:1024700013B5044601A80193FFF7F1FF20B1019BBA
:10248000A3422CBF0020012002B010BD4FF4A030A9
:1024900070470020704700207047034618460168C7
:1024A00081F3088881F3098840688746FEE708B50C
:1024B0004FF04023D3F894305B0601D4002008BDD0
:1024C000FEF7BAFAA0F202239BB2072BF6D8C92076
:1024D000D84010F00100F1D0F1E74FF40170FEF7A1
:1024E00097BAB1F5067F10B504460FD34FF40672C4
:1024F000002100F004FE04F5D07204F5AC7104F183
:102500002C000023BDE81040FEF7FEBD40F2052080
:1025100010BD13B50446009101462C30FEF72EFE87
:10252000C4F8140218B141F20703984204D1A37809
:1025300023B1E07800F2022002B010BD40F2012089
:10254000FAE72DE9F04387B00DF1080904460E467D
:1025500017460021102248461D46DDF8388000F05D
:10256000CEFD00211C22C8F80010284600F0C7FD4F
:1025700032463B462146CDF8009004F12C00FEF790
:10258000FDFD23789A0744BF6268C8F80020DB0786
:1025900009D504F1080304F1240253F8041B934203
:1025A00045F8041BF9D1237840F20640002B18BFF0
:1025B000002007B0BDE8F0834FF406707047012398
:1025C00007B5002200911946FEF742FC03B05DF802
:1025D00004FB70B5D1E90152AA4205D290F840300F
:1025E0002B449B1A402B10D9002012E00A6890F867
:1025F0004040D65C90F841200133224402F03F0273
:10260000013486548B6080F840408B689D42EDD841
:10261000012070BD2DE9F84390F840C017469E4652
:10262000D1E90123089DD21A6244954204460E4620
:102630009DF824909DF828800AD9FFF7CAFF00284A
:1026400067D1132341F2020084F84630BDE8F883D5
:10265000754555D8002394F840200AB19D4235D1E4
:10266000D6E90121914201D29D4241D89D424DD1EE
:1026700029463846D4F88820FFF79CF8C4F888002B
:10268000B9F1000F04D02A463946E06C00F070F82A
:1026900094F84330B8F1000F06D08BB12B463A4680
:1026A0003946A06C00F053F894F8433043B1E36D21
:1026B000A26D2B449342E36524BF002384F843308A
:1026C000636D41F203002B446365BFE794F841203A
:1026D000A25CFA5494F841200133013202F03F0227
:1026E00084F8412094F84020013A84F84020B2E771
:1026F0003268525CFA54B26801330132B260AFE71B
:1027000041F20100132384F846309FE741F20200B2
:10271000F8E700209AE749BA89B24840C0F30312AB
:10272000424013B283EA0233580100F4FF509BB2D7
:102730005840704738B5044645181046AC4200D1A1
:1027400038BD014614F8010BFFF7E5FFF6E730B599
:102750000D4685B0194600F12803CDE901520093DA
:1027600000F1240200F1380300F0BFFB05B030BDDA
:1027700000F00CB8014600F016B86822002100F005
:10278000BEBC03460020C3E90000704707B500F156
:1027900028030190009300F108030020FFF7E6F8FA
:1027A00003B05DF804FB02460B4600F12801083037
:1027B000FFF73AB9F0B51D4693B0002837D1189B02
:1027C00006909B01CDE904230AAB0A461E4601F19F
:1027D00020071C4610685168083203C4BA422346D9
:1027E000F7D1002307960993FFF762FD0446D8B995
:1027F0002023089304AB93E807008DE8070007AB9C
:1028000004200ECB00F0B1FA0746FFF75DFD8FB94B
:102810002B46324612AE154603CDB54218605960BC
:102820002A4603F10803F6D1204613B0F0BD6FF03D
:102830007104F9E76FF06F04F6E7FEE700239A42B0
:1028400000D1704710B550F8234041F823400133C0
:102850009A42F8D110BD70B5054614460E4600F0F8
:10286000DCFC2B685C4034405C402C60BDE8704070
:1028700000F0CEBC036BDA0702D503695B06F9D41E
:10288000704710B5FFF7F6FF0122044600F500532C
:102890001A630B7948881B0243EA8043887A034312
:1028A000487843EA8013C87A43EAC013087B43EAB6
:1028B0004013487B43EA0013887B43EAC003C87B8C
:1028C00043EAC023887943EA0043C87943EA404396
:1028D000636004F580531A630A780AB90223E3603F
:1028E000002363624B79087A1B01497A43EA80032B
:1028F0000B43A3600AB10123E36010BD13B51AB105
:102900000024009400F0BEF802B010BDF0B58DB008
:1029100005AC84E807001C46A1420D4628BF2546A9
:10292000129B0DB304B311462846002603F5181375
:10293000CDE90A468DE8030003F241135F02C5EBBF
:102940004323099302950CAA059B12E907000695FB
:1029500000F025FAA54207D23146621B381B0DB0A4
:10296000BDE8F04000F019BA0DB0F0BD30B591B03F
:1029700001AC84E807001C461346DA0049BF029AFE
:102980006200033222F00302014604A8FFF7B6FFFB
:1029900004A800F08CF81499224601F5181101F2F0
:1029A00041114D0208A8C4EB41210023FFF7A6FF07
:1029B00005F5007100232246091B0CA8FFF79EFFB6
:1029C0000CA800F074F808A904A800F050F811B0A1
:1029D00030BD10B58CB005AC84E807000E9ADDE977
:1029E000060102F5181202F5A0725202CDE9092380
:1029F00000228DE803000B9202930CAA059B12E9BA
:102A0000070000F0CCF90CB010BD2DE9F04B4FF0F1
:102A1000000899460746164645468AB003AC84E846
:102A2000070002F0805B07AC049A424502D80AB066
:102A3000BDE8F08B139B13B9AA1E012A0AD9129B79
:102A4000CDE90779099600955BB194E807004B46FC
:102A5000FFF75CFFBBF1000F00D14F440135C844C4
:102A6000E2E74B4694E80700FFF7B3FFF2E708B54B
:102A7000FFF7C0F9FFF7F4F9FFF7FCF9BDE80840EC
:102A8000FFF70CBA10B5044622F0704210306060B7
:102A90002160A26039B1A26803F070431343A360C0
:102AA000029BE36010BDA36843F08043F7E7012376
:102AB0004360C36843F02003C360836843F000535E
:102AC00083607047C36803F00F03012B02D0033B00
:102AD000012B08D8C36801F01F0143EA0123C3603A
:102AE00083680B448360704737B515464A680446CF
:102AF0003AB18C680093096845EA0403FFF7C2FF06
:102B00000446204603B030BD2DE9F04FD3B0CDE9E7
:102B10000123DDE95D7BDDE95FA90023039004204B
:102B200003ACCDE9050307C907AB83E807002146DD
:102B30001846619E0494FFF7C5F98046002840F0CE
:102B4000B3805C9A0AAB07CADBF8045083E807003D
:102B5000DAF804304C421D44D9F804306D425B422F
:102B60000093BB6805F00F05DA0048BF7B6804F0EE
:102B70000F0442BF033323F003037B60B368DB0021
:102B800041BF7368033323F0030373600023DBF852
:102B90000400DAF80420CDE9153381182944CDE981
:102BA0000E1379680D93494201F00F01CDE9103100
:102BB00071681293494201F00F01CDE91331CDE95B
:102BC000173319935C9B5B684BB9D9F804301343F6
:102BD000184301BF1024CDE90B4016AB0A93112313
:102BE0004FF0005204A932A8FFF77EFF40F6110310
:102BF0004FF0005207A9FFF777FF42F611034FF09D
:102C000000520299FFF770FF44F611034FF0005293
:102C10000199FFF769FF412300225946FFF764FF3E
:102C20002B024FF00052514643F04103FFF75CFF87
:102C300023024FF0005243F001030AA9FFF754FFAB
:102C4000009B4FF000521B0203F47063494643F0AF
:102C50000103FFF749FF1038FFF729FF00230DA9F3
:102C60001A461AA8FFF740FF002339461A46FFF715
:102C70003BFF002310A91A46FFF736FF0023314619
:102C80001A46FFF731FF002313A91A46FFF72CFF5E
:102C9000002362991A46FFF727FF1038FFF707FF56
:102CA0001AA932A8FFF7E3FE404653B0BDE8F08F03
:102CB0000069704770B586B003AE054686E80E0021
:102CC000FFF7F6FF202804463AD86A6800EB800335
:102CD0009A4203D0062343439A4233D10B9BB3EB72
:102CE000440F2FD10E9A93422CD10122214631203C
:102CF000EB68FFF755F808BB0123CDE90033234605
:102D000095E80700FFF781FE08230AAA009307CA87
:102D10002346FFF72BFE0C23009396E8070023467B
:102D2000FFF7F4FD0A230DAA009307CA2346FFF715
:102D30001DFEFFF751F8002818BF032006B070BD34
:102D40000120FBE70720F9E7062808D804280AD85D
:102D5000013803288CBF0020012080017047C31F69
:102D600058425841F9E78020704770B58AB007ACE7
:102D700084E80E0003AD064694E8070085E80B00E2
:102D8000012302930EAB019303230093304694E892
:102D90000E00FFF78DF90AB070BD00F0B0B982B037
:102DA0002DE9F0438BB005AE86E80700079D1F466E
:102DB00015F0804513938046DDE914328946169C50
:102DC00016D18C4228BF0C46D20016D584B10F2CE8
:102DD0001AD8A9EB0502042A3B6828BF042208EB95
:102DE000050009A90435099300F06CF9AC42F0D84C
:102DF0000BB0BDE8F04302B070479C4228BF1C46B0
:102E0000002CF5D00F2C13D9DDE914018DE8030057
:102E10000294139B96E80700FEF7F4FFFFF720F8F3
:102E2000FFF728F80BB0BDE8F04302B0FFF736B863
:102E3000224639460BB0BDE8F04302B000F042B97B
:102E40002422002100F05BB970B515460E462422FD
:102E50000021044600F053F925F04003802B02D0F6
:102E6000B5F5807F08D12046314640F8045BEA087A
:102E700000F028F9002070BD6FF01F00FBE730B5AF
:102E800001290D468BB02AD8046824F0400180291E
:102E900002D0B4F5807F25D10021CDE903121022A4
:102EA0000430E408CDE90521CDE907320190029410
:102EB0000991FFF7FDF968B9012D07AA04A901A836
:102EC0000AD1FFF73BF80446FFF7FEF9204318BF8D
:102ED0006FF06F000BB030BDFFF744F8F3E76FF011
:102EE0002000F7E76FF07100F4E72DE9F04F91B0A3
:102EF00082460F4698461646DDF86CB0FAB1156862
:102F0000DAF8003023F04002802A02D0B3F5807F47
:102F10006ED10024DB0805931023CDE90648CDE9E6
:102F200008340AF104020BEB070304920293BC423B
:102F300007D306B13560002011B0BDE8F08F15460B
:102F4000DEE75DB11A9A1BF80430525D013553403B
:102F50001C9A05F00F0513550134E8E7A7EB0409A7
:102F6000B9F10F0F1DD929F00F090BEB0403CDE9BF
:102F70000A391C9B0C952344CDE90D390F95FFF7B9
:102F800097F90028D8D107AB00930DAA0AA904A885
:102F9000FEF7FCFF0390FFF797F9039B03432AD149
:102FA0004C441C9B0BEB04091C44029B4B4501D178
:102FB0003C46BCE78DB94246012150461A9BFFF7BB
:102FC0005EFF0028B8D108F1100212F8013D01336C
:102FD000DBB213700BB94245F7D11A9A19F8013BCD
:102FE000525D0135534004F8013B05F00F05DCE765
:102FF0006FF07100A0E76FF06F009DE738B50446F1
:10300000FFF76EF9054634B1FFF780F930B10020C3
:103010006B68236038BD4FF4E020FBE74FF47E007F
:10302000F8E710B50446FFF771F910B1A068C0F3D6
:10303000C05010BD10B5FFF753F90446FFF7F1FF7C
:1030400008B1E06810BD4FF47E00FBE7F8B5054617
:10305000FFF746F9AD68044600F11406FFF7E1FFFB
:1030600040B3226956F82230DB4346F82230A0688C
:1030700010F470201BD0A06800F47020F8BD00216F
:103080002F68AE68C6F3990C61450CD0934203D10A
:103090009DB19342F3D3F1E7013354F8236047F82D
:1030A00021600131F0E76D6825F00105F0E7034686
:1030B0001034EDE74FF47E00E0E7934238BF4FF461
:1030C000E020DBE70A44431E914200D1704710B56F
:1030D00011F8014B914203F8014FF9D110BD0139AC
:1030E000024410B5904201D1002005E0037811F8A8
:1030F000014FA34201D0181B10BD0130F2E702447A
:103100000346934200D1704703F8011BF9E7000022
:10311000F8B5036A0446052B66D800F07EF84FF434
:103120008032324B3249586E03F580535A66314D26
:10313000314BC003C1F80036C1F804565CBFA1F59D
:10314000E4214A662D4A256A1A6022685A602C4A90
:1031500004F1080303EB8501121B8B4202EB030011
:103160001FD1294600206368264CF3B9224A40EA61
:103170000560906013685068926843405340002295
:1031800091422CD144F82130BFF34F8F1E491F4B81
:10319000CA6802F4E0621343CB60BFF34F8F00BFF5
:1031A000FDE753F8046F0660D7E70022D3F800E08C
:1031B00004EB81079E68BC46C6F39906964207F168
:1031C000040706D8104411445A68012ACED05B681F
:1031D000CBE75EF822600132CCF80060EAE754F8F1
:1031E000220001324340CBE7F8BD00BF0080004021
:1031F00000C00740004E00A0004C00A0DEC0ECE57F
:10320000044C00A00C4C00A000ED00E00400FA0506
:1032100010B962B6BFF36F8F7047EFF3108072B6CC
:103220007047036A042B9FBF00EB83020133D16018
:103230000362704700000000000000000000000072
:10324000F8B500BFF8BC08BC9E467047F8B500BF93
:10325000F8BC08BC9E46704700000000C92300006F
:1032600000000000E92300000D0A4765636B6F2032
:10327000426F6F746C6F616465722076582E595975
:103280002E5A5A0D0A312E2075706C6F61642067BA
:10329000626C0D0A322E2072756E0D0A332E206577
:1032A000626C20696E666F0D0A424C203E20000D54
:1032B0000A4661696C656420746F20626F6F740DDB
:1032C0000A000D0A66696C65206572726F722030A3
:1032D00078000D0A626C6F636B206572726F7220EA
:1032E0003078000D0A53657269616C2075706C6FDF
:1032F00061642061626F727465640D0A000D0A5387
:10330000657269616C2075706C6F616420636F6DAC
:10331000706C6574650D0A000D0A626567696E2040
:1033200075706C6F61640D0A00B814B6F1E0CFF3EC
:10333000ADB7DD25C9FA79B71300000013B779FAE4
:10334000C925DDB7ADF3CFE0F1B614B80102000036
:103350000000000060360000400000000100020391
:10336000000000000000000000000000000000005D
:10337000000000000000000000000000000000004D
:1033800000000000000000000000000007B0CD5E5B
:10339000020000000100020364360000004001004A
:1033A00000000800F004100093240000972400009F
:1033B00025070000E32400001325000000000000A2
:1033C00043250000B9250000000000009908000016
:1033D0008D2400000400000700000D1013001A20C7
:1033E0002630384050000000EB17A6030201000011
:1033F00003000000FA0606FA0F04000003000000B4
:10340000F40A0AF40505000001000000EB17A65EAF
:103410000A06000001000000F50909F50307000095
:1034200001000000F60808F6060800000000000091
:10343000FE0101FE0808000000000000FD0303FD7E
:103440000C08000000000000F90707F9100900004F
:1034500002000000F30B0BF3110A00000300000050
:10346000F70A0AF7120B000003000000FC0404FC3A
:103470000D0C0000030000008000000000000000B0
:10348000000000000000000000000000000000003C
:10349000000000000000000000000000000000002C
:1034A000000000000000000000000000000000001C
:1034B00000000000000000006A09E667BB67AE85F7
:1034C0003C6EF372A54FF53A510E527F9B05688C06
:1034D0001F83D9AB5BE0CD190000000000000000A5
:1034E0000000004000010000000200000004000095
:1034F0000008000000100000002000000040000054
:103500000080000000000100000000000100000039
:1035100024350000C0000000000000000000100082
:1035200020000000FFFFFFFF00000001000000007E
:103530000000000000000000FFFFFFFFFFFFFFFF93
:10354000FFFFFFFFFFFFFFFF00000000FFFFFFFF87
:10355000FFFFFFFFBCE6FAADA7179E84F3B9CAC20E
:10356000FC6325516B17D1F2E12C4247F8BCE6E52C
:1035700063A440F277037D812DEB33A0F4A139459C
:10358000D898C2964FE342E2FE1A7F9B8EE7EB4A41
:103590007C0F9E162BCE33576B315ECECBB6406878
:1035A00037BF51F5FFFFFFFF0000000100000000E2
:1035B0000000000000000000FFFFFFFFFFFFFFFF13
:1035C000FFFFFFFC5AC635D8AA3A93E7B3EBBD55C7
:1035D000769886BC651D06B0CC53B0F63BCE3C3E1B
:1035E00027D2604B1014202040402010141C2030A3
:0435F0004020000077
:0C35F40000360000D81200201800000073
:10360000F00F100300000000D6100020130000008F
:103610000100000000010000020200001300000091
:10362000F00F100300000000D6110020130000006E
:10363000010000000002000001010000D3FFFFFFB5
:10364000F07F103056100020000000000000000045
:103650000000064028000000ED010000C501000048
:0400000300000141B7
:00000001FF
